{
	"data": {
		"bytecode": {
			"linkReferences": {},
			"object": "608060405260055f55600f6001553480156017575f80fd5b50610265806100255f395ff3fe608060405260043610610033575f3560e01c80634758b9cd146100375780638381f58a14610061578063b60d42881461008b575b5f80fd5b348015610042575f80fd5b5061004b610095565b6040516100589190610118565b60405180910390f35b34801561006c575f80fd5b5061007561009b565b6040516100829190610118565b60405180910390f35b6100936100a0565b005b60015481565b5f5481565b600a5f546100ae919061015e565b5f81905550600134116100f6576040517f08c379a00000000000000000000000000000000000000000000000000000000081526004016100ed90610211565b60405180910390fd5b6014600181905550565b5f819050919050565b61011281610100565b82525050565b5f60208201905061012b5f830184610109565b92915050565b7f4e487b71000000000000000000000000000000000000000000000000000000005f52601160045260245ffd5b5f61016882610100565b915061017383610100565b925082820190508082111561018b5761018a610131565b5b92915050565b5f82825260208201905092915050565b7f5468652066756e64696e6720646f6573206e6f74206d656574206261736520725f8201527f6571756972656d656e7420000000000000000000000000000000000000000000602082015250565b5f6101fb602b83610191565b9150610206826101a1565b604082019050919050565b5f6020820190508181035f830152610228816101ef565b905091905056fea2646970667358221220cc759292cc70fab96b1bc2a2be1add13f8dcce789bed70fdddb99f1a255794cd64736f6c634300081a0033",
			"opcodes": "PUSH1 0x80 PUSH1 0x40 MSTORE PUSH1 0x5 PUSH0 SSTORE PUSH1 0xF PUSH1 0x1 SSTORE CALLVALUE DUP1 ISZERO PUSH1 0x17 JUMPI PUSH0 DUP1 REVERT JUMPDEST POP PUSH2 0x265 DUP1 PUSH2 0x25 PUSH0 CODECOPY PUSH0 RETURN INVALID PUSH1 0x80 PUSH1 0x40 MSTORE PUSH1 0x4 CALLDATASIZE LT PUSH2 0x33 JUMPI PUSH0 CALLDATALOAD PUSH1 0xE0 SHR DUP1 PUSH4 0x4758B9CD EQ PUSH2 0x37 JUMPI DUP1 PUSH4 0x8381F58A EQ PUSH2 0x61 JUMPI DUP1 PUSH4 0xB60D4288 EQ PUSH2 0x8B JUMPI JUMPDEST PUSH0 DUP1 REVERT JUMPDEST CALLVALUE DUP1 ISZERO PUSH2 0x42 JUMPI PUSH0 DUP1 REVERT JUMPDEST POP PUSH2 0x4B PUSH2 0x95 JUMP JUMPDEST PUSH1 0x40 MLOAD PUSH2 0x58 SWAP2 SWAP1 PUSH2 0x118 JUMP JUMPDEST PUSH1 0x40 MLOAD DUP1 SWAP2 SUB SWAP1 RETURN JUMPDEST CALLVALUE DUP1 ISZERO PUSH2 0x6C JUMPI PUSH0 DUP1 REVERT JUMPDEST POP PUSH2 0x75 PUSH2 0x9B JUMP JUMPDEST PUSH1 0x40 MLOAD PUSH2 0x82 SWAP2 SWAP1 PUSH2 0x118 JUMP JUMPDEST PUSH1 0x40 MLOAD DUP1 SWAP2 SUB SWAP1 RETURN JUMPDEST PUSH2 0x93 PUSH2 0xA0 JUMP JUMPDEST STOP JUMPDEST PUSH1 0x1 SLOAD DUP2 JUMP JUMPDEST PUSH0 SLOAD DUP2 JUMP JUMPDEST PUSH1 0xA PUSH0 SLOAD PUSH2 0xAE SWAP2 SWAP1 PUSH2 0x15E JUMP JUMPDEST PUSH0 DUP2 SWAP1 SSTORE POP PUSH1 0x1 CALLVALUE GT PUSH2 0xF6 JUMPI PUSH1 0x40 MLOAD PUSH32 0x8C379A000000000000000000000000000000000000000000000000000000000 DUP2 MSTORE PUSH1 0x4 ADD PUSH2 0xED SWAP1 PUSH2 0x211 JUMP JUMPDEST PUSH1 0x40 MLOAD DUP1 SWAP2 SUB SWAP1 REVERT JUMPDEST PUSH1 0x14 PUSH1 0x1 DUP2 SWAP1 SSTORE POP JUMP JUMPDEST PUSH0 DUP2 SWAP1 POP SWAP2 SWAP1 POP JUMP JUMPDEST PUSH2 0x112 DUP2 PUSH2 0x100 JUMP JUMPDEST DUP3 MSTORE POP POP JUMP JUMPDEST PUSH0 PUSH1 0x20 DUP3 ADD SWAP1 POP PUSH2 0x12B PUSH0 DUP4 ADD DUP5 PUSH2 0x109 JUMP JUMPDEST SWAP3 SWAP2 POP POP JUMP JUMPDEST PUSH32 0x4E487B7100000000000000000000000000000000000000000000000000000000 PUSH0 MSTORE PUSH1 0x11 PUSH1 0x4 MSTORE PUSH1 0x24 PUSH0 REVERT JUMPDEST PUSH0 PUSH2 0x168 DUP3 PUSH2 0x100 JUMP JUMPDEST SWAP2 POP PUSH2 0x173 DUP4 PUSH2 0x100 JUMP JUMPDEST SWAP3 POP DUP3 DUP3 ADD SWAP1 POP DUP1 DUP3 GT ISZERO PUSH2 0x18B JUMPI PUSH2 0x18A PUSH2 0x131 JUMP JUMPDEST JUMPDEST SWAP3 SWAP2 POP POP JUMP JUMPDEST PUSH0 DUP3 DUP3 MSTORE PUSH1 0x20 DUP3 ADD SWAP1 POP SWAP3 SWAP2 POP POP JUMP JUMPDEST PUSH32 0x5468652066756E64696E6720646F6573206E6F74206D65657420626173652072 PUSH0 DUP3 ADD MSTORE PUSH32 0x6571756972656D656E7420000000000000000000000000000000000000000000 PUSH1 0x20 DUP3 ADD MSTORE POP JUMP JUMPDEST PUSH0 PUSH2 0x1FB PUSH1 0x2B DUP4 PUSH2 0x191 JUMP JUMPDEST SWAP2 POP PUSH2 0x206 DUP3 PUSH2 0x1A1 JUMP JUMPDEST PUSH1 0x40 DUP3 ADD SWAP1 POP SWAP2 SWAP1 POP JUMP JUMPDEST PUSH0 PUSH1 0x20 DUP3 ADD SWAP1 POP DUP2 DUP2 SUB PUSH0 DUP4 ADD MSTORE PUSH2 0x228 DUP2 PUSH2 0x1EF JUMP JUMPDEST SWAP1 POP SWAP2 SWAP1 POP JUMP INVALID LOG2 PUSH5 0x6970667358 0x22 SLT KECCAK256 0xCC PUSH22 0x9292CC70FAB96B1BC2A2BE1ADD13F8DCCE789BED70FD 0xDD 0xB9 SWAP16 BYTE 0x25 JUMPI SWAP5 0xCD PUSH5 0x736F6C6343 STOP ADDMOD BYTE STOP CALLER "
		},
		"gasEstimates": {
			"creation": {
				"codeDepositCost": "122600",
				"executionCost": "44380",
				"totalCost": "166980"
			},
			"external": {
				"checkNumber()": "2403",
				"fund()": "infinite",
				"number()": "2424"
			}
		},
		"methodIdentifiers": {
			"checkNumber()": "4758b9cd",
			"fund()": "b60d4288",
			"number()": "8381f58a"
		}
	},
	"abi": [
		{
			"inputs": [],
			"name": "checkNumber",
			"outputs": [
				{
					"internalType": "uint256",
					"name": "",
					"type": "uint256"
				}
			],
			"stateMutability": "view",
			"type": "function"
		},
		{
			"inputs": [],
			"name": "fund",
			"outputs": [],
			"stateMutability": "payable",
			"type": "function"
		},
		{
			"inputs": [],
			"name": "number",
			"outputs": [
				{
					"internalType": "uint256",
					"name": "",
					"type": "uint256"
				}
			],
			"stateMutability": "view",
			"type": "function"
		}
	]
}