{
	"contracts/FundMe/FundMe.sol": {
		"FundMe": {
			"abi": [
				{
					"inputs": [],
					"name": "Withdraw",
					"outputs": [],
					"stateMutability": "nonpayable",
					"type": "function"
				},
				{
					"inputs": [],
					"name": "fund",
					"outputs": [],
					"stateMutability": "payable",
					"type": "function"
				},
				{
					"inputs": [
						{
							"internalType": "address",
							"name": "",
							"type": "address"
						}
					],
					"name": "fundingGivenByAddress",
					"outputs": [
						{
							"internalType": "uint256",
							"name": "",
							"type": "uint256"
						}
					],
					"stateMutability": "view",
					"type": "function"
				},
				{
					"inputs": [],
					"name": "minimumUSD",
					"outputs": [
						{
							"internalType": "uint256",
							"name": "",
							"type": "uint256"
						}
					],
					"stateMutability": "view",
					"type": "function"
				},
				{
					"inputs": [
						{
							"internalType": "uint256",
							"name": "",
							"type": "uint256"
						}
					],
					"name": "patrons",
					"outputs": [
						{
							"internalType": "address",
							"name": "",
							"type": "address"
						}
					],
					"stateMutability": "view",
					"type": "function"
				}
			],
			"devdoc": {
				"kind": "dev",
				"methods": {},
				"version": 1
			},
			"evm": {
				"assembly": "    /* \"contracts/FundMe/FundMe.sol\":286:1045  contract FundMe{... */\n  mstore(0x40, 0x80)\n    /* \"contracts/FundMe/FundMe.sol\":375:382  25*1e18 */\n  0x015af1d78b58c40000\n    /* \"contracts/FundMe/FundMe.sol\":347:382  uint256 public minimumUSD = 25*1e18 */\n  0x00\n  sstore\n    /* \"contracts/FundMe/FundMe.sol\":286:1045  contract FundMe{... */\n  callvalue\n  dup1\n  iszero\n  tag_1\n  jumpi\n  0x00\n  dup1\n  revert\ntag_1:\n  pop\n  dataSize(sub_0)\n  dup1\n  dataOffset(sub_0)\n  0x00\n  codecopy\n  0x00\n  return\nstop\n\nsub_0: assembly {\n        /* \"contracts/FundMe/FundMe.sol\":286:1045  contract FundMe{... */\n      mstore(0x40, 0x80)\n      jumpi(tag_1, lt(calldatasize, 0x04))\n      shr(0xe0, calldataload(0x00))\n      dup1\n      0x26115239\n      eq\n      tag_2\n      jumpi\n      dup1\n      0x3430a88c\n      eq\n      tag_3\n      jumpi\n      dup1\n      0x57ea89b6\n      eq\n      tag_4\n      jumpi\n      dup1\n      0xb60d4288\n      eq\n      tag_5\n      jumpi\n      dup1\n      0xd28dfb22\n      eq\n      tag_6\n      jumpi\n    tag_1:\n      0x00\n      dup1\n      revert\n        /* \"contracts/FundMe/FundMe.sol\":427:482  mapping(address=> uint256) public fundingGivenByAddress */\n    tag_2:\n      callvalue\n      dup1\n      iszero\n      tag_7\n      jumpi\n      0x00\n      dup1\n      revert\n    tag_7:\n      pop\n      tag_8\n      0x04\n      dup1\n      calldatasize\n      sub\n      dup2\n      add\n      swap1\n      tag_9\n      swap2\n      swap1\n      tag_10\n      jump\t// in\n    tag_9:\n      tag_11\n      jump\t// in\n    tag_8:\n      mload(0x40)\n      tag_12\n      swap2\n      swap1\n      tag_13\n      jump\t// in\n    tag_12:\n      mload(0x40)\n      dup1\n      swap2\n      sub\n      swap1\n      return\n        /* \"contracts/FundMe/FundMe.sol\":347:382  uint256 public minimumUSD = 25*1e18 */\n    tag_3:\n      callvalue\n      dup1\n      iszero\n      tag_14\n      jumpi\n      0x00\n      dup1\n      revert\n    tag_14:\n      pop\n      tag_15\n      tag_16\n      jump\t// in\n    tag_15:\n      mload(0x40)\n      tag_17\n      swap2\n      swap1\n      tag_13\n      jump\t// in\n    tag_17:\n      mload(0x40)\n      dup1\n      swap2\n      sub\n      swap1\n      return\n        /* \"contracts/FundMe/FundMe.sol\":773:1042  function Withdraw() public {... */\n    tag_4:\n      callvalue\n      dup1\n      iszero\n      tag_18\n      jumpi\n      0x00\n      dup1\n      revert\n    tag_18:\n      pop\n      tag_19\n      tag_20\n      jump\t// in\n    tag_19:\n      stop\n        /* \"contracts/FundMe/FundMe.sol\":491:754  function fund() public payable {... */\n    tag_5:\n      tag_21\n      tag_22\n      jump\t// in\n    tag_21:\n      stop\n        /* \"contracts/FundMe/FundMe.sol\":395:420  address[] public  patrons */\n    tag_6:\n      callvalue\n      dup1\n      iszero\n      tag_23\n      jumpi\n      0x00\n      dup1\n      revert\n    tag_23:\n      pop\n      tag_24\n      0x04\n      dup1\n      calldatasize\n      sub\n      dup2\n      add\n      swap1\n      tag_25\n      swap2\n      swap1\n      tag_26\n      jump\t// in\n    tag_25:\n      tag_27\n      jump\t// in\n    tag_24:\n      mload(0x40)\n      tag_28\n      swap2\n      swap1\n      tag_29\n      jump\t// in\n    tag_28:\n      mload(0x40)\n      dup1\n      swap2\n      sub\n      swap1\n      return\n        /* \"contracts/FundMe/FundMe.sol\":427:482  mapping(address=> uint256) public fundingGivenByAddress */\n    tag_11:\n      mstore(0x20, 0x02)\n      dup1\n      0x00\n      mstore\n      keccak256(0x00, 0x40)\n      0x00\n      swap2\n      pop\n      swap1\n      pop\n      sload\n      dup2\n      jump\t// out\n        /* \"contracts/FundMe/FundMe.sol\":347:382  uint256 public minimumUSD = 25*1e18 */\n    tag_16:\n      sload(0x00)\n      dup2\n      jump\t// out\n        /* \"contracts/FundMe/FundMe.sol\":773:1042  function Withdraw() public {... */\n    tag_20:\n        /* \"contracts/FundMe/FundMe.sol\":815:824  uint256 i */\n      0x00\n        /* \"contracts/FundMe/FundMe.sol\":811:949  for(uint256 i = 0;i<patrons.length; i++){... */\n    tag_31:\n        /* \"contracts/FundMe/FundMe.sol\":831:838  patrons */\n      0x01\n        /* \"contracts/FundMe/FundMe.sol\":831:845  patrons.length */\n      dup1\n      sload\n      swap1\n      pop\n        /* \"contracts/FundMe/FundMe.sol\":829:830  i */\n      dup2\n        /* \"contracts/FundMe/FundMe.sol\":829:845  i<patrons.length */\n      lt\n        /* \"contracts/FundMe/FundMe.sol\":811:949  for(uint256 i = 0;i<patrons.length; i++){... */\n      iszero\n      tag_32\n      jumpi\n        /* \"contracts/FundMe/FundMe.sol\":866:880  address patron */\n      0x00\n        /* \"contracts/FundMe/FundMe.sol\":883:890  patrons */\n      0x01\n        /* \"contracts/FundMe/FundMe.sol\":891:892  i */\n      dup3\n        /* \"contracts/FundMe/FundMe.sol\":883:893  patrons[i] */\n      dup2\n      sload\n      dup2\n      lt\n      tag_34\n      jumpi\n      tag_35\n      tag_36\n      jump\t// in\n    tag_35:\n    tag_34:\n      swap1\n      0x00\n      mstore\n      keccak256(0x00, 0x20)\n      add\n      0x00\n      swap1\n      sload\n      swap1\n      0x0100\n      exp\n      swap1\n      div\n      0xffffffffffffffffffffffffffffffffffffffff\n      and\n        /* \"contracts/FundMe/FundMe.sol\":866:893  address patron = patrons[i] */\n      swap1\n      pop\n        /* \"contracts/FundMe/FundMe.sol\":940:941  0 */\n      0x00\n        /* \"contracts/FundMe/FundMe.sol\":908:929  fundingGivenByAddress */\n      0x02\n        /* \"contracts/FundMe/FundMe.sol\":908:937  fundingGivenByAddress[patron] */\n      0x00\n        /* \"contracts/FundMe/FundMe.sol\":930:936  patron */\n      dup4\n        /* \"contracts/FundMe/FundMe.sol\":908:937  fundingGivenByAddress[patron] */\n      0xffffffffffffffffffffffffffffffffffffffff\n      and\n      0xffffffffffffffffffffffffffffffffffffffff\n      and\n      dup2\n      mstore\n      0x20\n      add\n      swap1\n      dup2\n      mstore\n      0x20\n      add\n      0x00\n      keccak256\n        /* \"contracts/FundMe/FundMe.sol\":908:941  fundingGivenByAddress[patron] = 0 */\n      dup2\n      swap1\n      sstore\n      pop\n        /* \"contracts/FundMe/FundMe.sol\":851:949  {... */\n      pop\n        /* \"contracts/FundMe/FundMe.sol\":847:850  i++ */\n      dup1\n      dup1\n      0x01\n      add\n      swap2\n      pop\n      pop\n        /* \"contracts/FundMe/FundMe.sol\":811:949  for(uint256 i = 0;i<patrons.length; i++){... */\n      jump(tag_31)\n    tag_32:\n      pop\n        /* \"contracts/FundMe/FundMe.sol\":971:981  msg.sender */\n      caller\n        /* \"contracts/FundMe/FundMe.sol\":963:987  payable(msg.sender).send */\n      0xffffffffffffffffffffffffffffffffffffffff\n      and\n        /* \"contracts/FundMe/FundMe.sol\":963:1010  payable(msg.sender).send(address(this).balance) */\n      0x08fc\n        /* \"contracts/FundMe/FundMe.sol\":988:1009  address(this).balance */\n      selfbalance\n        /* \"contracts/FundMe/FundMe.sol\":963:1010  payable(msg.sender).send(address(this).balance) */\n      swap1\n      dup2\n      iszero\n      mul\n      swap1\n      mload(0x40)\n      0x00\n      mload(0x40)\n      dup1\n      dup4\n      sub\n      dup2\n      dup6\n      dup9\n      dup9\n      call\n      swap4\n      pop\n      pop\n      pop\n      pop\n        /* \"contracts/FundMe/FundMe.sol\":955:1038  require(payable(msg.sender).send(address(this).balance),\"Could not send Try again\") */\n      tag_39\n      jumpi\n      mload(0x40)\n      0x08c379a000000000000000000000000000000000000000000000000000000000\n      dup2\n      mstore\n      0x04\n      add\n      tag_40\n      swap1\n      tag_41\n      jump\t// in\n    tag_40:\n      mload(0x40)\n      dup1\n      swap2\n      sub\n      swap1\n      revert\n    tag_39:\n        /* \"contracts/FundMe/FundMe.sol\":773:1042  function Withdraw() public {... */\n      jump\t// out\n        /* \"contracts/FundMe/FundMe.sol\":491:754  function fund() public payable {... */\n    tag_22:\n        /* \"contracts/FundMe/FundMe.sol\":581:591  minimumUSD */\n      sload(0x00)\n        /* \"contracts/FundMe/FundMe.sol\":550:579  msg.value.getConversionRate() */\n      tag_43\n        /* \"contracts/FundMe/FundMe.sol\":550:559  msg.value */\n      callvalue\n        /* \"contracts/FundMe/FundMe.sol\":550:577  msg.value.getConversionRate */\n      tag_44\n        /* \"contracts/FundMe/FundMe.sol\":550:579  msg.value.getConversionRate() */\n      jump\t// in\n    tag_43:\n        /* \"contracts/FundMe/FundMe.sol\":550:591  msg.value.getConversionRate()>=minimumUSD */\n      lt\n      iszero\n        /* \"contracts/FundMe/FundMe.sol\":542:638  require(msg.value.getConversionRate()>=minimumUSD,\"The funding does not meet base requirement \") */\n      tag_45\n      jumpi\n      mload(0x40)\n      0x08c379a000000000000000000000000000000000000000000000000000000000\n      dup2\n      mstore\n      0x04\n      add\n      tag_46\n      swap1\n      tag_47\n      jump\t// in\n    tag_46:\n      mload(0x40)\n      dup1\n      swap2\n      sub\n      swap1\n      revert\n    tag_45:\n        /* \"contracts/FundMe/FundMe.sol\":657:664  patrons */\n      0x01\n        /* \"contracts/FundMe/FundMe.sol\":670:680  msg.sender */\n      caller\n        /* \"contracts/FundMe/FundMe.sol\":657:681  patrons.push(msg.sender) */\n      swap1\n      dup1\n      0x01\n      dup2\n      sload\n      add\n      dup1\n      dup3\n      sstore\n      dup1\n      swap2\n      pop\n      pop\n      0x01\n      swap1\n      sub\n      swap1\n      0x00\n      mstore\n      keccak256(0x00, 0x20)\n      add\n      0x00\n      swap1\n      swap2\n      swap1\n      swap2\n      swap1\n      swap2\n      0x0100\n      exp\n      dup2\n      sload\n      dup2\n      0xffffffffffffffffffffffffffffffffffffffff\n      mul\n      not\n      and\n      swap1\n      dup4\n      0xffffffffffffffffffffffffffffffffffffffff\n      and\n      mul\n      or\n      swap1\n      sstore\n      pop\n        /* \"contracts/FundMe/FundMe.sol\":737:746  msg.value */\n      callvalue\n        /* \"contracts/FundMe/FundMe.sol\":703:724  fundingGivenByAddress */\n      0x02\n        /* \"contracts/FundMe/FundMe.sol\":703:736  fundingGivenByAddress[msg.sender] */\n      0x00\n        /* \"contracts/FundMe/FundMe.sol\":725:735  msg.sender */\n      caller\n        /* \"contracts/FundMe/FundMe.sol\":703:736  fundingGivenByAddress[msg.sender] */\n      0xffffffffffffffffffffffffffffffffffffffff\n      and\n      0xffffffffffffffffffffffffffffffffffffffff\n      and\n      dup2\n      mstore\n      0x20\n      add\n      swap1\n      dup2\n      mstore\n      0x20\n      add\n      0x00\n      keccak256\n        /* \"contracts/FundMe/FundMe.sol\":703:746  fundingGivenByAddress[msg.sender]=msg.value */\n      dup2\n      swap1\n      sstore\n      pop\n        /* \"contracts/FundMe/FundMe.sol\":491:754  function fund() public payable {... */\n      jump\t// out\n        /* \"contracts/FundMe/FundMe.sol\":395:420  address[] public  patrons */\n    tag_27:\n      0x01\n      dup2\n      dup2\n      sload\n      dup2\n      lt\n      tag_49\n      jumpi\n      0x00\n      dup1\n      revert\n    tag_49:\n      swap1\n      0x00\n      mstore\n      keccak256(0x00, 0x20)\n      add\n      0x00\n      swap2\n      pop\n      sload\n      swap1\n      0x0100\n      exp\n      swap1\n      div\n      0xffffffffffffffffffffffffffffffffffffffff\n      and\n      dup2\n      jump\t// out\n        /* \"contracts/FundMe/PriceConverter.sol\":640:856  function getConversionRate(uint256 ethAmount) internal view  returns(uint256) {... */\n    tag_44:\n        /* \"contracts/FundMe/PriceConverter.sol\":709:716  uint256 */\n      0x00\n        /* \"contracts/FundMe/PriceConverter.sol\":729:745  uint256 ethPrice */\n      dup1\n        /* \"contracts/FundMe/PriceConverter.sol\":747:757  getPrice() */\n      tag_52\n        /* \"contracts/FundMe/PriceConverter.sol\":747:755  getPrice */\n      tag_53\n        /* \"contracts/FundMe/PriceConverter.sol\":747:757  getPrice() */\n      jump\t// in\n    tag_52:\n        /* \"contracts/FundMe/PriceConverter.sol\":729:757  uint256 ethPrice= getPrice() */\n      swap1\n      pop\n        /* \"contracts/FundMe/PriceConverter.sol\":768:789  uint256 ethPriceInUsd */\n      0x00\n        /* \"contracts/FundMe/PriceConverter.sol\":813:817  1e18 */\n      0x0de0b6b3a7640000\n        /* \"contracts/FundMe/PriceConverter.sol\":803:811  ethPrice */\n      dup3\n        /* \"contracts/FundMe/PriceConverter.sol\":793:802  ethAmount */\n      dup6\n        /* \"contracts/FundMe/PriceConverter.sol\":793:811  ethAmount*ethPrice */\n      tag_54\n      swap2\n      swap1\n      tag_55\n      jump\t// in\n    tag_54:\n        /* \"contracts/FundMe/PriceConverter.sol\":792:817  (ethAmount*ethPrice)/1e18 */\n      tag_56\n      swap2\n      swap1\n      tag_57\n      jump\t// in\n    tag_56:\n        /* \"contracts/FundMe/PriceConverter.sol\":768:817  uint256 ethPriceInUsd = (ethAmount*ethPrice)/1e18 */\n      swap1\n      pop\n        /* \"contracts/FundMe/PriceConverter.sol\":835:848  ethPriceInUsd */\n      dup1\n        /* \"contracts/FundMe/PriceConverter.sol\":828:848  return ethPriceInUsd */\n      swap3\n      pop\n      pop\n      pop\n        /* \"contracts/FundMe/PriceConverter.sol\":640:856  function getConversionRate(uint256 ethAmount) internal view  returns(uint256) {... */\n      swap2\n      swap1\n      pop\n      jump\t// out\n        /* \"contracts/FundMe/PriceConverter.sol\":208:632  function getPrice() internal   view returns(uint256)  {... */\n    tag_53:\n        /* \"contracts/FundMe/PriceConverter.sol\":252:259  uint256 */\n      0x00\n        /* \"contracts/FundMe/PriceConverter.sol\":430:461  AggregatorV3Interface priceFeed */\n      dup1\n        /* \"contracts/FundMe/PriceConverter.sol\":486:528  0x694AA1769357215DE4FAC081bf1f309aDC325306 */\n      0x694aa1769357215de4fac081bf1f309adc325306\n        /* \"contracts/FundMe/PriceConverter.sol\":430:529  AggregatorV3Interface priceFeed = AggregatorV3Interface(0x694AA1769357215DE4FAC081bf1f309aDC325306) */\n      swap1\n      pop\n        /* \"contracts/FundMe/PriceConverter.sol\":542:554  int256 price */\n      0x00\n        /* \"contracts/FundMe/PriceConverter.sol\":559:568  priceFeed */\n      dup2\n        /* \"contracts/FundMe/PriceConverter.sol\":559:584  priceFeed.latestRoundData */\n      0xffffffffffffffffffffffffffffffffffffffff\n      and\n      0xfeaf968c\n        /* \"contracts/FundMe/PriceConverter.sol\":559:586  priceFeed.latestRoundData() */\n      mload(0x40)\n      dup2\n      0xffffffff\n      and\n      0xe0\n      shl\n      dup2\n      mstore\n      0x04\n      add\n      0xa0\n      mload(0x40)\n      dup1\n      dup4\n      sub\n      dup2\n      dup7\n      gas\n      staticcall\n      iszero\n      dup1\n      iszero\n      tag_60\n      jumpi\n      returndatasize\n      0x00\n      dup1\n      returndatacopy\n      revert(0x00, returndatasize)\n    tag_60:\n      pop\n      pop\n      pop\n      pop\n      mload(0x40)\n      returndatasize\n      not(0x1f)\n      0x1f\n      dup3\n      add\n      and\n      dup3\n      add\n      dup1\n      0x40\n      mstore\n      pop\n      dup2\n      add\n      swap1\n      tag_61\n      swap2\n      swap1\n      tag_62\n      jump\t// in\n    tag_61:\n        /* \"contracts/FundMe/PriceConverter.sol\":540:586  (,int256 price,,,)=priceFeed.latestRoundData() */\n      pop\n      pop\n      pop\n      swap2\n      pop\n      pop\n        /* \"contracts/FundMe/PriceConverter.sol\":619:623  1e10 */\n      0x02540be400\n        /* \"contracts/FundMe/PriceConverter.sol\":613:618  price */\n      dup2\n        /* \"contracts/FundMe/PriceConverter.sol\":613:623  price*1e10 */\n      tag_63\n      swap2\n      swap1\n      tag_64\n      jump\t// in\n    tag_63:\n        /* \"contracts/FundMe/PriceConverter.sol\":598:624  return uint256(price*1e10) */\n      swap3\n      pop\n      pop\n      pop\n        /* \"contracts/FundMe/PriceConverter.sol\":208:632  function getPrice() internal   view returns(uint256)  {... */\n      swap1\n      jump\t// out\n        /* \"#utility.yul\":88:205   */\n    tag_66:\n        /* \"#utility.yul\":197:198   */\n      0x00\n        /* \"#utility.yul\":194:195   */\n      dup1\n        /* \"#utility.yul\":187:199   */\n      revert\n        /* \"#utility.yul\":334:460   */\n    tag_68:\n        /* \"#utility.yul\":371:378   */\n      0x00\n        /* \"#utility.yul\":411:453   */\n      0xffffffffffffffffffffffffffffffffffffffff\n        /* \"#utility.yul\":404:409   */\n      dup3\n        /* \"#utility.yul\":400:454   */\n      and\n        /* \"#utility.yul\":389:454   */\n      swap1\n      pop\n        /* \"#utility.yul\":334:460   */\n      swap2\n      swap1\n      pop\n      jump\t// out\n        /* \"#utility.yul\":466:562   */\n    tag_69:\n        /* \"#utility.yul\":503:510   */\n      0x00\n        /* \"#utility.yul\":532:556   */\n      tag_97\n        /* \"#utility.yul\":550:555   */\n      dup3\n        /* \"#utility.yul\":532:556   */\n      tag_68\n      jump\t// in\n    tag_97:\n        /* \"#utility.yul\":521:556   */\n      swap1\n      pop\n        /* \"#utility.yul\":466:562   */\n      swap2\n      swap1\n      pop\n      jump\t// out\n        /* \"#utility.yul\":568:690   */\n    tag_70:\n        /* \"#utility.yul\":641:665   */\n      tag_99\n        /* \"#utility.yul\":659:664   */\n      dup2\n        /* \"#utility.yul\":641:665   */\n      tag_69\n      jump\t// in\n    tag_99:\n        /* \"#utility.yul\":634:639   */\n      dup2\n        /* \"#utility.yul\":631:666   */\n      eq\n        /* \"#utility.yul\":621:684   */\n      tag_100\n      jumpi\n        /* \"#utility.yul\":680:681   */\n      0x00\n        /* \"#utility.yul\":677:678   */\n      dup1\n        /* \"#utility.yul\":670:682   */\n      revert\n        /* \"#utility.yul\":621:684   */\n    tag_100:\n        /* \"#utility.yul\":568:690   */\n      pop\n      jump\t// out\n        /* \"#utility.yul\":696:835   */\n    tag_71:\n        /* \"#utility.yul\":742:747   */\n      0x00\n        /* \"#utility.yul\":780:786   */\n      dup2\n        /* \"#utility.yul\":767:787   */\n      calldataload\n        /* \"#utility.yul\":758:787   */\n      swap1\n      pop\n        /* \"#utility.yul\":796:829   */\n      tag_102\n        /* \"#utility.yul\":823:828   */\n      dup2\n        /* \"#utility.yul\":796:829   */\n      tag_70\n      jump\t// in\n    tag_102:\n        /* \"#utility.yul\":696:835   */\n      swap3\n      swap2\n      pop\n      pop\n      jump\t// out\n        /* \"#utility.yul\":841:1170   */\n    tag_10:\n        /* \"#utility.yul\":900:906   */\n      0x00\n        /* \"#utility.yul\":949:951   */\n      0x20\n        /* \"#utility.yul\":937:946   */\n      dup3\n        /* \"#utility.yul\":928:935   */\n      dup5\n        /* \"#utility.yul\":924:947   */\n      sub\n        /* \"#utility.yul\":920:952   */\n      slt\n        /* \"#utility.yul\":917:1036   */\n      iszero\n      tag_104\n      jumpi\n        /* \"#utility.yul\":955:1034   */\n      tag_105\n      tag_66\n      jump\t// in\n    tag_105:\n        /* \"#utility.yul\":917:1036   */\n    tag_104:\n        /* \"#utility.yul\":1075:1076   */\n      0x00\n        /* \"#utility.yul\":1100:1153   */\n      tag_106\n        /* \"#utility.yul\":1145:1152   */\n      dup5\n        /* \"#utility.yul\":1136:1142   */\n      dup3\n        /* \"#utility.yul\":1125:1134   */\n      dup6\n        /* \"#utility.yul\":1121:1143   */\n      add\n        /* \"#utility.yul\":1100:1153   */\n      tag_71\n      jump\t// in\n    tag_106:\n        /* \"#utility.yul\":1090:1153   */\n      swap2\n      pop\n        /* \"#utility.yul\":1046:1163   */\n      pop\n        /* \"#utility.yul\":841:1170   */\n      swap3\n      swap2\n      pop\n      pop\n      jump\t// out\n        /* \"#utility.yul\":1176:1253   */\n    tag_72:\n        /* \"#utility.yul\":1213:1220   */\n      0x00\n        /* \"#utility.yul\":1242:1247   */\n      dup2\n        /* \"#utility.yul\":1231:1247   */\n      swap1\n      pop\n        /* \"#utility.yul\":1176:1253   */\n      swap2\n      swap1\n      pop\n      jump\t// out\n        /* \"#utility.yul\":1259:1377   */\n    tag_73:\n        /* \"#utility.yul\":1346:1370   */\n      tag_109\n        /* \"#utility.yul\":1364:1369   */\n      dup2\n        /* \"#utility.yul\":1346:1370   */\n      tag_72\n      jump\t// in\n    tag_109:\n        /* \"#utility.yul\":1341:1344   */\n      dup3\n        /* \"#utility.yul\":1334:1371   */\n      mstore\n        /* \"#utility.yul\":1259:1377   */\n      pop\n      pop\n      jump\t// out\n        /* \"#utility.yul\":1383:1605   */\n    tag_13:\n        /* \"#utility.yul\":1476:1480   */\n      0x00\n        /* \"#utility.yul\":1514:1516   */\n      0x20\n        /* \"#utility.yul\":1503:1512   */\n      dup3\n        /* \"#utility.yul\":1499:1517   */\n      add\n        /* \"#utility.yul\":1491:1517   */\n      swap1\n      pop\n        /* \"#utility.yul\":1527:1598   */\n      tag_111\n        /* \"#utility.yul\":1595:1596   */\n      0x00\n        /* \"#utility.yul\":1584:1593   */\n      dup4\n        /* \"#utility.yul\":1580:1597   */\n      add\n        /* \"#utility.yul\":1571:1577   */\n      dup5\n        /* \"#utility.yul\":1527:1598   */\n      tag_73\n      jump\t// in\n    tag_111:\n        /* \"#utility.yul\":1383:1605   */\n      swap3\n      swap2\n      pop\n      pop\n      jump\t// out\n        /* \"#utility.yul\":1611:1733   */\n    tag_74:\n        /* \"#utility.yul\":1684:1708   */\n      tag_113\n        /* \"#utility.yul\":1702:1707   */\n      dup2\n        /* \"#utility.yul\":1684:1708   */\n      tag_72\n      jump\t// in\n    tag_113:\n        /* \"#utility.yul\":1677:1682   */\n      dup2\n        /* \"#utility.yul\":1674:1709   */\n      eq\n        /* \"#utility.yul\":1664:1727   */\n      tag_114\n      jumpi\n        /* \"#utility.yul\":1723:1724   */\n      0x00\n        /* \"#utility.yul\":1720:1721   */\n      dup1\n        /* \"#utility.yul\":1713:1725   */\n      revert\n        /* \"#utility.yul\":1664:1727   */\n    tag_114:\n        /* \"#utility.yul\":1611:1733   */\n      pop\n      jump\t// out\n        /* \"#utility.yul\":1739:1878   */\n    tag_75:\n        /* \"#utility.yul\":1785:1790   */\n      0x00\n        /* \"#utility.yul\":1823:1829   */\n      dup2\n        /* \"#utility.yul\":1810:1830   */\n      calldataload\n        /* \"#utility.yul\":1801:1830   */\n      swap1\n      pop\n        /* \"#utility.yul\":1839:1872   */\n      tag_116\n        /* \"#utility.yul\":1866:1871   */\n      dup2\n        /* \"#utility.yul\":1839:1872   */\n      tag_74\n      jump\t// in\n    tag_116:\n        /* \"#utility.yul\":1739:1878   */\n      swap3\n      swap2\n      pop\n      pop\n      jump\t// out\n        /* \"#utility.yul\":1884:2213   */\n    tag_26:\n        /* \"#utility.yul\":1943:1949   */\n      0x00\n        /* \"#utility.yul\":1992:1994   */\n      0x20\n        /* \"#utility.yul\":1980:1989   */\n      dup3\n        /* \"#utility.yul\":1971:1978   */\n      dup5\n        /* \"#utility.yul\":1967:1990   */\n      sub\n        /* \"#utility.yul\":1963:1995   */\n      slt\n        /* \"#utility.yul\":1960:2079   */\n      iszero\n      tag_118\n      jumpi\n        /* \"#utility.yul\":1998:2077   */\n      tag_119\n      tag_66\n      jump\t// in\n    tag_119:\n        /* \"#utility.yul\":1960:2079   */\n    tag_118:\n        /* \"#utility.yul\":2118:2119   */\n      0x00\n        /* \"#utility.yul\":2143:2196   */\n      tag_120\n        /* \"#utility.yul\":2188:2195   */\n      dup5\n        /* \"#utility.yul\":2179:2185   */\n      dup3\n        /* \"#utility.yul\":2168:2177   */\n      dup6\n        /* \"#utility.yul\":2164:2186   */\n      add\n        /* \"#utility.yul\":2143:2196   */\n      tag_75\n      jump\t// in\n    tag_120:\n        /* \"#utility.yul\":2133:2196   */\n      swap2\n      pop\n        /* \"#utility.yul\":2089:2206   */\n      pop\n        /* \"#utility.yul\":1884:2213   */\n      swap3\n      swap2\n      pop\n      pop\n      jump\t// out\n        /* \"#utility.yul\":2219:2337   */\n    tag_76:\n        /* \"#utility.yul\":2306:2330   */\n      tag_122\n        /* \"#utility.yul\":2324:2329   */\n      dup2\n        /* \"#utility.yul\":2306:2330   */\n      tag_69\n      jump\t// in\n    tag_122:\n        /* \"#utility.yul\":2301:2304   */\n      dup3\n        /* \"#utility.yul\":2294:2331   */\n      mstore\n        /* \"#utility.yul\":2219:2337   */\n      pop\n      pop\n      jump\t// out\n        /* \"#utility.yul\":2343:2565   */\n    tag_29:\n        /* \"#utility.yul\":2436:2440   */\n      0x00\n        /* \"#utility.yul\":2474:2476   */\n      0x20\n        /* \"#utility.yul\":2463:2472   */\n      dup3\n        /* \"#utility.yul\":2459:2477   */\n      add\n        /* \"#utility.yul\":2451:2477   */\n      swap1\n      pop\n        /* \"#utility.yul\":2487:2558   */\n      tag_124\n        /* \"#utility.yul\":2555:2556   */\n      0x00\n        /* \"#utility.yul\":2544:2553   */\n      dup4\n        /* \"#utility.yul\":2540:2557   */\n      add\n        /* \"#utility.yul\":2531:2537   */\n      dup5\n        /* \"#utility.yul\":2487:2558   */\n      tag_76\n      jump\t// in\n    tag_124:\n        /* \"#utility.yul\":2343:2565   */\n      swap3\n      swap2\n      pop\n      pop\n      jump\t// out\n        /* \"#utility.yul\":2571:2751   */\n    tag_36:\n        /* \"#utility.yul\":2619:2696   */\n      0x4e487b7100000000000000000000000000000000000000000000000000000000\n        /* \"#utility.yul\":2616:2617   */\n      0x00\n        /* \"#utility.yul\":2609:2697   */\n      mstore\n        /* \"#utility.yul\":2716:2720   */\n      0x32\n        /* \"#utility.yul\":2713:2714   */\n      0x04\n        /* \"#utility.yul\":2706:2721   */\n      mstore\n        /* \"#utility.yul\":2740:2744   */\n      0x24\n        /* \"#utility.yul\":2737:2738   */\n      0x00\n        /* \"#utility.yul\":2730:2745   */\n      revert\n        /* \"#utility.yul\":2757:2926   */\n    tag_77:\n        /* \"#utility.yul\":2841:2852   */\n      0x00\n        /* \"#utility.yul\":2875:2881   */\n      dup3\n        /* \"#utility.yul\":2870:2873   */\n      dup3\n        /* \"#utility.yul\":2863:2882   */\n      mstore\n        /* \"#utility.yul\":2915:2919   */\n      0x20\n        /* \"#utility.yul\":2910:2913   */\n      dup3\n        /* \"#utility.yul\":2906:2920   */\n      add\n        /* \"#utility.yul\":2891:2920   */\n      swap1\n      pop\n        /* \"#utility.yul\":2757:2926   */\n      swap3\n      swap2\n      pop\n      pop\n      jump\t// out\n        /* \"#utility.yul\":2932:3106   */\n    tag_78:\n        /* \"#utility.yul\":3072:3098   */\n      0x436f756c64206e6f742073656e642054727920616761696e0000000000000000\n        /* \"#utility.yul\":3068:3069   */\n      0x00\n        /* \"#utility.yul\":3060:3066   */\n      dup3\n        /* \"#utility.yul\":3056:3070   */\n      add\n        /* \"#utility.yul\":3049:3099   */\n      mstore\n        /* \"#utility.yul\":2932:3106   */\n      pop\n      jump\t// out\n        /* \"#utility.yul\":3112:3478   */\n    tag_79:\n        /* \"#utility.yul\":3254:3257   */\n      0x00\n        /* \"#utility.yul\":3275:3342   */\n      tag_129\n        /* \"#utility.yul\":3339:3341   */\n      0x18\n        /* \"#utility.yul\":3334:3337   */\n      dup4\n        /* \"#utility.yul\":3275:3342   */\n      tag_77\n      jump\t// in\n    tag_129:\n        /* \"#utility.yul\":3268:3342   */\n      swap2\n      pop\n        /* \"#utility.yul\":3351:3444   */\n      tag_130\n        /* \"#utility.yul\":3440:3443   */\n      dup3\n        /* \"#utility.yul\":3351:3444   */\n      tag_78\n      jump\t// in\n    tag_130:\n        /* \"#utility.yul\":3469:3471   */\n      0x20\n        /* \"#utility.yul\":3464:3467   */\n      dup3\n        /* \"#utility.yul\":3460:3472   */\n      add\n        /* \"#utility.yul\":3453:3472   */\n      swap1\n      pop\n        /* \"#utility.yul\":3112:3478   */\n      swap2\n      swap1\n      pop\n      jump\t// out\n        /* \"#utility.yul\":3484:3903   */\n    tag_41:\n        /* \"#utility.yul\":3650:3654   */\n      0x00\n        /* \"#utility.yul\":3688:3690   */\n      0x20\n        /* \"#utility.yul\":3677:3686   */\n      dup3\n        /* \"#utility.yul\":3673:3691   */\n      add\n        /* \"#utility.yul\":3665:3691   */\n      swap1\n      pop\n        /* \"#utility.yul\":3737:3746   */\n      dup2\n        /* \"#utility.yul\":3731:3735   */\n      dup2\n        /* \"#utility.yul\":3727:3747   */\n      sub\n        /* \"#utility.yul\":3723:3724   */\n      0x00\n        /* \"#utility.yul\":3712:3721   */\n      dup4\n        /* \"#utility.yul\":3708:3725   */\n      add\n        /* \"#utility.yul\":3701:3748   */\n      mstore\n        /* \"#utility.yul\":3765:3896   */\n      tag_132\n        /* \"#utility.yul\":3891:3895   */\n      dup2\n        /* \"#utility.yul\":3765:3896   */\n      tag_79\n      jump\t// in\n    tag_132:\n        /* \"#utility.yul\":3757:3896   */\n      swap1\n      pop\n        /* \"#utility.yul\":3484:3903   */\n      swap2\n      swap1\n      pop\n      jump\t// out\n        /* \"#utility.yul\":3909:4139   */\n    tag_80:\n        /* \"#utility.yul\":4049:4083   */\n      0x5468652066756e64696e6720646f6573206e6f74206d65657420626173652072\n        /* \"#utility.yul\":4045:4046   */\n      0x00\n        /* \"#utility.yul\":4037:4043   */\n      dup3\n        /* \"#utility.yul\":4033:4047   */\n      add\n        /* \"#utility.yul\":4026:4084   */\n      mstore\n        /* \"#utility.yul\":4118:4131   */\n      0x6571756972656d656e7420000000000000000000000000000000000000000000\n        /* \"#utility.yul\":4113:4115   */\n      0x20\n        /* \"#utility.yul\":4105:4111   */\n      dup3\n        /* \"#utility.yul\":4101:4116   */\n      add\n        /* \"#utility.yul\":4094:4132   */\n      mstore\n        /* \"#utility.yul\":3909:4139   */\n      pop\n      jump\t// out\n        /* \"#utility.yul\":4145:4511   */\n    tag_81:\n        /* \"#utility.yul\":4287:4290   */\n      0x00\n        /* \"#utility.yul\":4308:4375   */\n      tag_135\n        /* \"#utility.yul\":4372:4374   */\n      0x2b\n        /* \"#utility.yul\":4367:4370   */\n      dup4\n        /* \"#utility.yul\":4308:4375   */\n      tag_77\n      jump\t// in\n    tag_135:\n        /* \"#utility.yul\":4301:4375   */\n      swap2\n      pop\n        /* \"#utility.yul\":4384:4477   */\n      tag_136\n        /* \"#utility.yul\":4473:4476   */\n      dup3\n        /* \"#utility.yul\":4384:4477   */\n      tag_80\n      jump\t// in\n    tag_136:\n        /* \"#utility.yul\":4502:4504   */\n      0x40\n        /* \"#utility.yul\":4497:4500   */\n      dup3\n        /* \"#utility.yul\":4493:4505   */\n      add\n        /* \"#utility.yul\":4486:4505   */\n      swap1\n      pop\n        /* \"#utility.yul\":4145:4511   */\n      swap2\n      swap1\n      pop\n      jump\t// out\n        /* \"#utility.yul\":4517:4936   */\n    tag_47:\n        /* \"#utility.yul\":4683:4687   */\n      0x00\n        /* \"#utility.yul\":4721:4723   */\n      0x20\n        /* \"#utility.yul\":4710:4719   */\n      dup3\n        /* \"#utility.yul\":4706:4724   */\n      add\n        /* \"#utility.yul\":4698:4724   */\n      swap1\n      pop\n        /* \"#utility.yul\":4770:4779   */\n      dup2\n        /* \"#utility.yul\":4764:4768   */\n      dup2\n        /* \"#utility.yul\":4760:4780   */\n      sub\n        /* \"#utility.yul\":4756:4757   */\n      0x00\n        /* \"#utility.yul\":4745:4754   */\n      dup4\n        /* \"#utility.yul\":4741:4758   */\n      add\n        /* \"#utility.yul\":4734:4781   */\n      mstore\n        /* \"#utility.yul\":4798:4929   */\n      tag_138\n        /* \"#utility.yul\":4924:4928   */\n      dup2\n        /* \"#utility.yul\":4798:4929   */\n      tag_81\n      jump\t// in\n    tag_138:\n        /* \"#utility.yul\":4790:4929   */\n      swap1\n      pop\n        /* \"#utility.yul\":4517:4936   */\n      swap2\n      swap1\n      pop\n      jump\t// out\n        /* \"#utility.yul\":4942:5122   */\n    tag_82:\n        /* \"#utility.yul\":4990:5067   */\n      0x4e487b7100000000000000000000000000000000000000000000000000000000\n        /* \"#utility.yul\":4987:4988   */\n      0x00\n        /* \"#utility.yul\":4980:5068   */\n      mstore\n        /* \"#utility.yul\":5087:5091   */\n      0x11\n        /* \"#utility.yul\":5084:5085   */\n      0x04\n        /* \"#utility.yul\":5077:5092   */\n      mstore\n        /* \"#utility.yul\":5111:5115   */\n      0x24\n        /* \"#utility.yul\":5108:5109   */\n      0x00\n        /* \"#utility.yul\":5101:5116   */\n      revert\n        /* \"#utility.yul\":5128:5538   */\n    tag_55:\n        /* \"#utility.yul\":5168:5175   */\n      0x00\n        /* \"#utility.yul\":5191:5211   */\n      tag_141\n        /* \"#utility.yul\":5209:5210   */\n      dup3\n        /* \"#utility.yul\":5191:5211   */\n      tag_72\n      jump\t// in\n    tag_141:\n        /* \"#utility.yul\":5186:5211   */\n      swap2\n      pop\n        /* \"#utility.yul\":5225:5245   */\n      tag_142\n        /* \"#utility.yul\":5243:5244   */\n      dup4\n        /* \"#utility.yul\":5225:5245   */\n      tag_72\n      jump\t// in\n    tag_142:\n        /* \"#utility.yul\":5220:5245   */\n      swap3\n      pop\n        /* \"#utility.yul\":5280:5281   */\n      dup3\n        /* \"#utility.yul\":5277:5278   */\n      dup3\n        /* \"#utility.yul\":5273:5282   */\n      mul\n        /* \"#utility.yul\":5302:5332   */\n      tag_143\n        /* \"#utility.yul\":5320:5331   */\n      dup2\n        /* \"#utility.yul\":5302:5332   */\n      tag_72\n      jump\t// in\n    tag_143:\n        /* \"#utility.yul\":5291:5332   */\n      swap2\n      pop\n        /* \"#utility.yul\":5481:5482   */\n      dup3\n        /* \"#utility.yul\":5472:5479   */\n      dup3\n        /* \"#utility.yul\":5468:5483   */\n      div\n        /* \"#utility.yul\":5465:5466   */\n      dup5\n        /* \"#utility.yul\":5462:5484   */\n      eq\n        /* \"#utility.yul\":5442:5443   */\n      dup4\n        /* \"#utility.yul\":5435:5444   */\n      iszero\n        /* \"#utility.yul\":5415:5498   */\n      or\n        /* \"#utility.yul\":5392:5531   */\n      tag_144\n      jumpi\n        /* \"#utility.yul\":5511:5529   */\n      tag_145\n      tag_82\n      jump\t// in\n    tag_145:\n        /* \"#utility.yul\":5392:5531   */\n    tag_144:\n        /* \"#utility.yul\":5176:5538   */\n      pop\n        /* \"#utility.yul\":5128:5538   */\n      swap3\n      swap2\n      pop\n      pop\n      jump\t// out\n        /* \"#utility.yul\":5544:5724   */\n    tag_83:\n        /* \"#utility.yul\":5592:5669   */\n      0x4e487b7100000000000000000000000000000000000000000000000000000000\n        /* \"#utility.yul\":5589:5590   */\n      0x00\n        /* \"#utility.yul\":5582:5670   */\n      mstore\n        /* \"#utility.yul\":5689:5693   */\n      0x12\n        /* \"#utility.yul\":5686:5687   */\n      0x04\n        /* \"#utility.yul\":5679:5694   */\n      mstore\n        /* \"#utility.yul\":5713:5717   */\n      0x24\n        /* \"#utility.yul\":5710:5711   */\n      0x00\n        /* \"#utility.yul\":5703:5718   */\n      revert\n        /* \"#utility.yul\":5730:5915   */\n    tag_57:\n        /* \"#utility.yul\":5770:5771   */\n      0x00\n        /* \"#utility.yul\":5787:5807   */\n      tag_148\n        /* \"#utility.yul\":5805:5806   */\n      dup3\n        /* \"#utility.yul\":5787:5807   */\n      tag_72\n      jump\t// in\n    tag_148:\n        /* \"#utility.yul\":5782:5807   */\n      swap2\n      pop\n        /* \"#utility.yul\":5821:5841   */\n      tag_149\n        /* \"#utility.yul\":5839:5840   */\n      dup4\n        /* \"#utility.yul\":5821:5841   */\n      tag_72\n      jump\t// in\n    tag_149:\n        /* \"#utility.yul\":5816:5841   */\n      swap3\n      pop\n        /* \"#utility.yul\":5860:5861   */\n      dup3\n        /* \"#utility.yul\":5850:5885   */\n      tag_150\n      jumpi\n        /* \"#utility.yul\":5865:5883   */\n      tag_151\n      tag_83\n      jump\t// in\n    tag_151:\n        /* \"#utility.yul\":5850:5885   */\n    tag_150:\n        /* \"#utility.yul\":5907:5908   */\n      dup3\n        /* \"#utility.yul\":5904:5905   */\n      dup3\n        /* \"#utility.yul\":5900:5909   */\n      div\n        /* \"#utility.yul\":5895:5909   */\n      swap1\n      pop\n        /* \"#utility.yul\":5730:5915   */\n      swap3\n      swap2\n      pop\n      pop\n      jump\t// out\n        /* \"#utility.yul\":5921:6026   */\n    tag_84:\n        /* \"#utility.yul\":5957:5964   */\n      0x00\n        /* \"#utility.yul\":5997:6019   */\n      0xffffffffffffffffffff\n        /* \"#utility.yul\":5990:5995   */\n      dup3\n        /* \"#utility.yul\":5986:6020   */\n      and\n        /* \"#utility.yul\":5975:6020   */\n      swap1\n      pop\n        /* \"#utility.yul\":5921:6026   */\n      swap2\n      swap1\n      pop\n      jump\t// out\n        /* \"#utility.yul\":6032:6152   */\n    tag_85:\n        /* \"#utility.yul\":6104:6127   */\n      tag_154\n        /* \"#utility.yul\":6121:6126   */\n      dup2\n        /* \"#utility.yul\":6104:6127   */\n      tag_84\n      jump\t// in\n    tag_154:\n        /* \"#utility.yul\":6097:6102   */\n      dup2\n        /* \"#utility.yul\":6094:6128   */\n      eq\n        /* \"#utility.yul\":6084:6146   */\n      tag_155\n      jumpi\n        /* \"#utility.yul\":6142:6143   */\n      0x00\n        /* \"#utility.yul\":6139:6140   */\n      dup1\n        /* \"#utility.yul\":6132:6144   */\n      revert\n        /* \"#utility.yul\":6084:6146   */\n    tag_155:\n        /* \"#utility.yul\":6032:6152   */\n      pop\n      jump\t// out\n        /* \"#utility.yul\":6158:6299   */\n    tag_86:\n        /* \"#utility.yul\":6214:6219   */\n      0x00\n        /* \"#utility.yul\":6245:6251   */\n      dup2\n        /* \"#utility.yul\":6239:6252   */\n      mload\n        /* \"#utility.yul\":6230:6252   */\n      swap1\n      pop\n        /* \"#utility.yul\":6261:6293   */\n      tag_157\n        /* \"#utility.yul\":6287:6292   */\n      dup2\n        /* \"#utility.yul\":6261:6293   */\n      tag_85\n      jump\t// in\n    tag_157:\n        /* \"#utility.yul\":6158:6299   */\n      swap3\n      swap2\n      pop\n      pop\n      jump\t// out\n        /* \"#utility.yul\":6305:6381   */\n    tag_87:\n        /* \"#utility.yul\":6341:6348   */\n      0x00\n        /* \"#utility.yul\":6370:6375   */\n      dup2\n        /* \"#utility.yul\":6359:6375   */\n      swap1\n      pop\n        /* \"#utility.yul\":6305:6381   */\n      swap2\n      swap1\n      pop\n      jump\t// out\n        /* \"#utility.yul\":6387:6507   */\n    tag_88:\n        /* \"#utility.yul\":6459:6482   */\n      tag_160\n        /* \"#utility.yul\":6476:6481   */\n      dup2\n        /* \"#utility.yul\":6459:6482   */\n      tag_87\n      jump\t// in\n    tag_160:\n        /* \"#utility.yul\":6452:6457   */\n      dup2\n        /* \"#utility.yul\":6449:6483   */\n      eq\n        /* \"#utility.yul\":6439:6501   */\n      tag_161\n      jumpi\n        /* \"#utility.yul\":6497:6498   */\n      0x00\n        /* \"#utility.yul\":6494:6495   */\n      dup1\n        /* \"#utility.yul\":6487:6499   */\n      revert\n        /* \"#utility.yul\":6439:6501   */\n    tag_161:\n        /* \"#utility.yul\":6387:6507   */\n      pop\n      jump\t// out\n        /* \"#utility.yul\":6513:6654   */\n    tag_89:\n        /* \"#utility.yul\":6569:6574   */\n      0x00\n        /* \"#utility.yul\":6600:6606   */\n      dup2\n        /* \"#utility.yul\":6594:6607   */\n      mload\n        /* \"#utility.yul\":6585:6607   */\n      swap1\n      pop\n        /* \"#utility.yul\":6616:6648   */\n      tag_163\n        /* \"#utility.yul\":6642:6647   */\n      dup2\n        /* \"#utility.yul\":6616:6648   */\n      tag_88\n      jump\t// in\n    tag_163:\n        /* \"#utility.yul\":6513:6654   */\n      swap3\n      swap2\n      pop\n      pop\n      jump\t// out\n        /* \"#utility.yul\":6660:6803   */\n    tag_90:\n        /* \"#utility.yul\":6717:6722   */\n      0x00\n        /* \"#utility.yul\":6748:6754   */\n      dup2\n        /* \"#utility.yul\":6742:6755   */\n      mload\n        /* \"#utility.yul\":6733:6755   */\n      swap1\n      pop\n        /* \"#utility.yul\":6764:6797   */\n      tag_165\n        /* \"#utility.yul\":6791:6796   */\n      dup2\n        /* \"#utility.yul\":6764:6797   */\n      tag_74\n      jump\t// in\n    tag_165:\n        /* \"#utility.yul\":6660:6803   */\n      swap3\n      swap2\n      pop\n      pop\n      jump\t// out\n        /* \"#utility.yul\":6809:7780   */\n    tag_62:\n        /* \"#utility.yul\":6912:6918   */\n      0x00\n        /* \"#utility.yul\":6920:6926   */\n      dup1\n        /* \"#utility.yul\":6928:6934   */\n      0x00\n        /* \"#utility.yul\":6936:6942   */\n      dup1\n        /* \"#utility.yul\":6944:6950   */\n      0x00\n        /* \"#utility.yul\":6993:6996   */\n      0xa0\n        /* \"#utility.yul\":6981:6990   */\n      dup7\n        /* \"#utility.yul\":6972:6979   */\n      dup9\n        /* \"#utility.yul\":6968:6991   */\n      sub\n        /* \"#utility.yul\":6964:6997   */\n      slt\n        /* \"#utility.yul\":6961:7081   */\n      iszero\n      tag_167\n      jumpi\n        /* \"#utility.yul\":7000:7079   */\n      tag_168\n      tag_66\n      jump\t// in\n    tag_168:\n        /* \"#utility.yul\":6961:7081   */\n    tag_167:\n        /* \"#utility.yul\":7120:7121   */\n      0x00\n        /* \"#utility.yul\":7145:7208   */\n      tag_169\n        /* \"#utility.yul\":7200:7207   */\n      dup9\n        /* \"#utility.yul\":7191:7197   */\n      dup3\n        /* \"#utility.yul\":7180:7189   */\n      dup10\n        /* \"#utility.yul\":7176:7198   */\n      add\n        /* \"#utility.yul\":7145:7208   */\n      tag_86\n      jump\t// in\n    tag_169:\n        /* \"#utility.yul\":7135:7208   */\n      swap6\n      pop\n        /* \"#utility.yul\":7091:7218   */\n      pop\n        /* \"#utility.yul\":7257:7259   */\n      0x20\n        /* \"#utility.yul\":7283:7346   */\n      tag_170\n        /* \"#utility.yul\":7338:7345   */\n      dup9\n        /* \"#utility.yul\":7329:7335   */\n      dup3\n        /* \"#utility.yul\":7318:7327   */\n      dup10\n        /* \"#utility.yul\":7314:7336   */\n      add\n        /* \"#utility.yul\":7283:7346   */\n      tag_89\n      jump\t// in\n    tag_170:\n        /* \"#utility.yul\":7273:7346   */\n      swap5\n      pop\n        /* \"#utility.yul\":7228:7356   */\n      pop\n        /* \"#utility.yul\":7395:7397   */\n      0x40\n        /* \"#utility.yul\":7421:7485   */\n      tag_171\n        /* \"#utility.yul\":7477:7484   */\n      dup9\n        /* \"#utility.yul\":7468:7474   */\n      dup3\n        /* \"#utility.yul\":7457:7466   */\n      dup10\n        /* \"#utility.yul\":7453:7475   */\n      add\n        /* \"#utility.yul\":7421:7485   */\n      tag_90\n      jump\t// in\n    tag_171:\n        /* \"#utility.yul\":7411:7485   */\n      swap4\n      pop\n        /* \"#utility.yul\":7366:7495   */\n      pop\n        /* \"#utility.yul\":7534:7536   */\n      0x60\n        /* \"#utility.yul\":7560:7624   */\n      tag_172\n        /* \"#utility.yul\":7616:7623   */\n      dup9\n        /* \"#utility.yul\":7607:7613   */\n      dup3\n        /* \"#utility.yul\":7596:7605   */\n      dup10\n        /* \"#utility.yul\":7592:7614   */\n      add\n        /* \"#utility.yul\":7560:7624   */\n      tag_90\n      jump\t// in\n    tag_172:\n        /* \"#utility.yul\":7550:7624   */\n      swap3\n      pop\n        /* \"#utility.yul\":7505:7634   */\n      pop\n        /* \"#utility.yul\":7673:7676   */\n      0x80\n        /* \"#utility.yul\":7700:7763   */\n      tag_173\n        /* \"#utility.yul\":7755:7762   */\n      dup9\n        /* \"#utility.yul\":7746:7752   */\n      dup3\n        /* \"#utility.yul\":7735:7744   */\n      dup10\n        /* \"#utility.yul\":7731:7753   */\n      add\n        /* \"#utility.yul\":7700:7763   */\n      tag_86\n      jump\t// in\n    tag_173:\n        /* \"#utility.yul\":7690:7763   */\n      swap2\n      pop\n        /* \"#utility.yul\":7644:7773   */\n      pop\n        /* \"#utility.yul\":6809:7780   */\n      swap3\n      swap6\n      pop\n      swap3\n      swap6\n      swap1\n      swap4\n      pop\n      jump\t// out\n        /* \"#utility.yul\":7786:8342   */\n    tag_64:\n        /* \"#utility.yul\":7825:7832   */\n      0x00\n        /* \"#utility.yul\":7848:7867   */\n      tag_175\n        /* \"#utility.yul\":7865:7866   */\n      dup3\n        /* \"#utility.yul\":7848:7867   */\n      tag_87\n      jump\t// in\n    tag_175:\n        /* \"#utility.yul\":7843:7867   */\n      swap2\n      pop\n        /* \"#utility.yul\":7881:7900   */\n      tag_176\n        /* \"#utility.yul\":7898:7899   */\n      dup4\n        /* \"#utility.yul\":7881:7900   */\n      tag_87\n      jump\t// in\n    tag_176:\n        /* \"#utility.yul\":7876:7900   */\n      swap3\n      pop\n        /* \"#utility.yul\":7935:7936   */\n      dup3\n        /* \"#utility.yul\":7932:7933   */\n      dup3\n        /* \"#utility.yul\":7928:7937   */\n      mul\n        /* \"#utility.yul\":7957:7986   */\n      tag_177\n        /* \"#utility.yul\":7974:7985   */\n      dup2\n        /* \"#utility.yul\":7957:7986   */\n      tag_87\n      jump\t// in\n    tag_177:\n        /* \"#utility.yul\":7946:7986   */\n      swap2\n      pop\n        /* \"#utility.yul\":8044:8110   */\n      0x8000000000000000000000000000000000000000000000000000000000000000\n        /* \"#utility.yul\":8041:8042   */\n      dup5\n        /* \"#utility.yul\":8038:8111   */\n      eq\n        /* \"#utility.yul\":8034:8035   */\n      0x00\n        /* \"#utility.yul\":8031:8032   */\n      dup5\n        /* \"#utility.yul\":8027:8036   */\n      slt\n        /* \"#utility.yul\":8023:8112   */\n      and\n        /* \"#utility.yul\":8020:8135   */\n      iszero\n      tag_178\n      jumpi\n        /* \"#utility.yul\":8115:8133   */\n      tag_179\n      tag_82\n      jump\t// in\n    tag_179:\n        /* \"#utility.yul\":8020:8135   */\n    tag_178:\n        /* \"#utility.yul\":8285:8286   */\n      dup3\n        /* \"#utility.yul\":8276:8283   */\n      dup3\n        /* \"#utility.yul\":8271:8287   */\n      sdiv\n        /* \"#utility.yul\":8268:8269   */\n      dup5\n        /* \"#utility.yul\":8265:8288   */\n      eq\n        /* \"#utility.yul\":8245:8246   */\n      dup4\n        /* \"#utility.yul\":8238:8247   */\n      iszero\n        /* \"#utility.yul\":8218:8302   */\n      or\n        /* \"#utility.yul\":8195:8335   */\n      tag_180\n      jumpi\n        /* \"#utility.yul\":8315:8333   */\n      tag_181\n      tag_82\n      jump\t// in\n    tag_181:\n        /* \"#utility.yul\":8195:8335   */\n    tag_180:\n        /* \"#utility.yul\":7833:8342   */\n      pop\n        /* \"#utility.yul\":7786:8342   */\n      swap3\n      swap2\n      pop\n      pop\n      jump\t// out\n\n    auxdata: 0xa2646970667358221220721e13cb6be668b456d3bedfac1c75d925a6f0bd72f7470129be452e6fc1c82364736f6c634300081a0033\n}\n",
				"bytecode": {
					"linkReferences": {},
					"object": "608060405268015af1d78b58c400005f55348015601a575f80fd5b50610923806100285f395ff3fe608060405260043610610049575f3560e01c8063261152391461004d5780633430a88c1461008957806357ea89b6146100b3578063b60d4288146100c9578063d28dfb22146100d3575b5f80fd5b348015610058575f80fd5b50610073600480360381019061006e91906104a3565b61010f565b60405161008091906104e6565b60405180910390f35b348015610094575f80fd5b5061009d610124565b6040516100aa91906104e6565b60405180910390f35b3480156100be575f80fd5b506100c7610129565b005b6100d161023d565b005b3480156100de575f80fd5b506100f960048036038101906100f49190610529565b61032d565b6040516101069190610563565b60405180910390f35b6002602052805f5260405f205f915090505481565b5f5481565b5f5b6001805490508110156101c7575f6001828154811061014d5761014c61057c565b5b905f5260205f20015f9054906101000a900473ffffffffffffffffffffffffffffffffffffffff1690505f60025f8373ffffffffffffffffffffffffffffffffffffffff1673ffffffffffffffffffffffffffffffffffffffff1681526020019081526020015f208190555050808060010191505061012b565b503373ffffffffffffffffffffffffffffffffffffffff166108fc4790811502906040515f60405180830381858888f1935050505061023b576040517f08c379a000000000000000000000000000000000000000000000000000000000815260040161023290610603565b60405180910390fd5b565b5f5461024834610368565b1015610289576040517f08c379a000000000000000000000000000000000000000000000000000000000815260040161028090610691565b60405180910390fd5b600133908060018154018082558091505060019003905f5260205f20015f9091909190916101000a81548173ffffffffffffffffffffffffffffffffffffffff021916908373ffffffffffffffffffffffffffffffffffffffff1602179055503460025f3373ffffffffffffffffffffffffffffffffffffffff1673ffffffffffffffffffffffffffffffffffffffff1681526020019081526020015f2081905550565b6001818154811061033c575f80fd5b905f5260205f20015f915054906101000a900473ffffffffffffffffffffffffffffffffffffffff1681565b5f806103726103a0565b90505f670de0b6b3a7640000828561038a91906106dc565b610394919061074a565b90508092505050919050565b5f8073694aa1769357215de4fac081bf1f309adc32530690505f8173ffffffffffffffffffffffffffffffffffffffff1663feaf968c6040518163ffffffff1660e01b815260040160a060405180830381865afa158015610403573d5f803e3d5ffd5b505050506040513d601f19601f820116820180604052508101906104279190610800565b5050509150506402540be4008161043e9190610877565b9250505090565b5f80fd5b5f73ffffffffffffffffffffffffffffffffffffffff82169050919050565b5f61047282610449565b9050919050565b61048281610468565b811461048c575f80fd5b50565b5f8135905061049d81610479565b92915050565b5f602082840312156104b8576104b7610445565b5b5f6104c58482850161048f565b91505092915050565b5f819050919050565b6104e0816104ce565b82525050565b5f6020820190506104f95f8301846104d7565b92915050565b610508816104ce565b8114610512575f80fd5b50565b5f81359050610523816104ff565b92915050565b5f6020828403121561053e5761053d610445565b5b5f61054b84828501610515565b91505092915050565b61055d81610468565b82525050565b5f6020820190506105765f830184610554565b92915050565b7f4e487b71000000000000000000000000000000000000000000000000000000005f52603260045260245ffd5b5f82825260208201905092915050565b7f436f756c64206e6f742073656e642054727920616761696e00000000000000005f82015250565b5f6105ed6018836105a9565b91506105f8826105b9565b602082019050919050565b5f6020820190508181035f83015261061a816105e1565b9050919050565b7f5468652066756e64696e6720646f6573206e6f74206d656574206261736520725f8201527f6571756972656d656e7420000000000000000000000000000000000000000000602082015250565b5f61067b602b836105a9565b915061068682610621565b604082019050919050565b5f6020820190508181035f8301526106a88161066f565b9050919050565b7f4e487b71000000000000000000000000000000000000000000000000000000005f52601160045260245ffd5b5f6106e6826104ce565b91506106f1836104ce565b92508282026106ff816104ce565b91508282048414831517610716576107156106af565b5b5092915050565b7f4e487b71000000000000000000000000000000000000000000000000000000005f52601260045260245ffd5b5f610754826104ce565b915061075f836104ce565b92508261076f5761076e61071d565b5b828204905092915050565b5f69ffffffffffffffffffff82169050919050565b6107988161077a565b81146107a2575f80fd5b50565b5f815190506107b38161078f565b92915050565b5f819050919050565b6107cb816107b9565b81146107d5575f80fd5b50565b5f815190506107e6816107c2565b92915050565b5f815190506107fa816104ff565b92915050565b5f805f805f60a0868803121561081957610818610445565b5b5f610826888289016107a5565b9550506020610837888289016107d8565b9450506040610848888289016107ec565b9350506060610859888289016107ec565b925050608061086a888289016107a5565b9150509295509295909350565b5f610881826107b9565b915061088c836107b9565b925082820261089a816107b9565b91507f800000000000000000000000000000000000000000000000000000000000000084145f841216156108d1576108d06106af565b5b82820584148315176108e6576108e56106af565b5b509291505056fea2646970667358221220721e13cb6be668b456d3bedfac1c75d925a6f0bd72f7470129be452e6fc1c82364736f6c634300081a0033",
					"opcodes": "PUSH1 0x80 PUSH1 0x40 MSTORE PUSH9 0x15AF1D78B58C40000 PUSH0 SSTORE CALLVALUE DUP1 ISZERO PUSH1 0x1A JUMPI PUSH0 DUP1 REVERT JUMPDEST POP PUSH2 0x923 DUP1 PUSH2 0x28 PUSH0 CODECOPY PUSH0 RETURN INVALID PUSH1 0x80 PUSH1 0x40 MSTORE PUSH1 0x4 CALLDATASIZE LT PUSH2 0x49 JUMPI PUSH0 CALLDATALOAD PUSH1 0xE0 SHR DUP1 PUSH4 0x26115239 EQ PUSH2 0x4D JUMPI DUP1 PUSH4 0x3430A88C EQ PUSH2 0x89 JUMPI DUP1 PUSH4 0x57EA89B6 EQ PUSH2 0xB3 JUMPI DUP1 PUSH4 0xB60D4288 EQ PUSH2 0xC9 JUMPI DUP1 PUSH4 0xD28DFB22 EQ PUSH2 0xD3 JUMPI JUMPDEST PUSH0 DUP1 REVERT JUMPDEST CALLVALUE DUP1 ISZERO PUSH2 0x58 JUMPI PUSH0 DUP1 REVERT JUMPDEST POP PUSH2 0x73 PUSH1 0x4 DUP1 CALLDATASIZE SUB DUP2 ADD SWAP1 PUSH2 0x6E SWAP2 SWAP1 PUSH2 0x4A3 JUMP JUMPDEST PUSH2 0x10F JUMP JUMPDEST PUSH1 0x40 MLOAD PUSH2 0x80 SWAP2 SWAP1 PUSH2 0x4E6 JUMP JUMPDEST PUSH1 0x40 MLOAD DUP1 SWAP2 SUB SWAP1 RETURN JUMPDEST CALLVALUE DUP1 ISZERO PUSH2 0x94 JUMPI PUSH0 DUP1 REVERT JUMPDEST POP PUSH2 0x9D PUSH2 0x124 JUMP JUMPDEST PUSH1 0x40 MLOAD PUSH2 0xAA SWAP2 SWAP1 PUSH2 0x4E6 JUMP JUMPDEST PUSH1 0x40 MLOAD DUP1 SWAP2 SUB SWAP1 RETURN JUMPDEST CALLVALUE DUP1 ISZERO PUSH2 0xBE JUMPI PUSH0 DUP1 REVERT JUMPDEST POP PUSH2 0xC7 PUSH2 0x129 JUMP JUMPDEST STOP JUMPDEST PUSH2 0xD1 PUSH2 0x23D JUMP JUMPDEST STOP JUMPDEST CALLVALUE DUP1 ISZERO PUSH2 0xDE JUMPI PUSH0 DUP1 REVERT JUMPDEST POP PUSH2 0xF9 PUSH1 0x4 DUP1 CALLDATASIZE SUB DUP2 ADD SWAP1 PUSH2 0xF4 SWAP2 SWAP1 PUSH2 0x529 JUMP JUMPDEST PUSH2 0x32D JUMP JUMPDEST PUSH1 0x40 MLOAD PUSH2 0x106 SWAP2 SWAP1 PUSH2 0x563 JUMP JUMPDEST PUSH1 0x40 MLOAD DUP1 SWAP2 SUB SWAP1 RETURN JUMPDEST PUSH1 0x2 PUSH1 0x20 MSTORE DUP1 PUSH0 MSTORE PUSH1 0x40 PUSH0 KECCAK256 PUSH0 SWAP2 POP SWAP1 POP SLOAD DUP2 JUMP JUMPDEST PUSH0 SLOAD DUP2 JUMP JUMPDEST PUSH0 JUMPDEST PUSH1 0x1 DUP1 SLOAD SWAP1 POP DUP2 LT ISZERO PUSH2 0x1C7 JUMPI PUSH0 PUSH1 0x1 DUP3 DUP2 SLOAD DUP2 LT PUSH2 0x14D JUMPI PUSH2 0x14C PUSH2 0x57C JUMP JUMPDEST JUMPDEST SWAP1 PUSH0 MSTORE PUSH1 0x20 PUSH0 KECCAK256 ADD PUSH0 SWAP1 SLOAD SWAP1 PUSH2 0x100 EXP SWAP1 DIV PUSH20 0xFFFFFFFFFFFFFFFFFFFFFFFFFFFFFFFFFFFFFFFF AND SWAP1 POP PUSH0 PUSH1 0x2 PUSH0 DUP4 PUSH20 0xFFFFFFFFFFFFFFFFFFFFFFFFFFFFFFFFFFFFFFFF AND PUSH20 0xFFFFFFFFFFFFFFFFFFFFFFFFFFFFFFFFFFFFFFFF AND DUP2 MSTORE PUSH1 0x20 ADD SWAP1 DUP2 MSTORE PUSH1 0x20 ADD PUSH0 KECCAK256 DUP2 SWAP1 SSTORE POP POP DUP1 DUP1 PUSH1 0x1 ADD SWAP2 POP POP PUSH2 0x12B JUMP JUMPDEST POP CALLER PUSH20 0xFFFFFFFFFFFFFFFFFFFFFFFFFFFFFFFFFFFFFFFF AND PUSH2 0x8FC SELFBALANCE SWAP1 DUP2 ISZERO MUL SWAP1 PUSH1 0x40 MLOAD PUSH0 PUSH1 0x40 MLOAD DUP1 DUP4 SUB DUP2 DUP6 DUP9 DUP9 CALL SWAP4 POP POP POP POP PUSH2 0x23B JUMPI PUSH1 0x40 MLOAD PUSH32 0x8C379A000000000000000000000000000000000000000000000000000000000 DUP2 MSTORE PUSH1 0x4 ADD PUSH2 0x232 SWAP1 PUSH2 0x603 JUMP JUMPDEST PUSH1 0x40 MLOAD DUP1 SWAP2 SUB SWAP1 REVERT JUMPDEST JUMP JUMPDEST PUSH0 SLOAD PUSH2 0x248 CALLVALUE PUSH2 0x368 JUMP JUMPDEST LT ISZERO PUSH2 0x289 JUMPI PUSH1 0x40 MLOAD PUSH32 0x8C379A000000000000000000000000000000000000000000000000000000000 DUP2 MSTORE PUSH1 0x4 ADD PUSH2 0x280 SWAP1 PUSH2 0x691 JUMP JUMPDEST PUSH1 0x40 MLOAD DUP1 SWAP2 SUB SWAP1 REVERT JUMPDEST PUSH1 0x1 CALLER SWAP1 DUP1 PUSH1 0x1 DUP2 SLOAD ADD DUP1 DUP3 SSTORE DUP1 SWAP2 POP POP PUSH1 0x1 SWAP1 SUB SWAP1 PUSH0 MSTORE PUSH1 0x20 PUSH0 KECCAK256 ADD PUSH0 SWAP1 SWAP2 SWAP1 SWAP2 SWAP1 SWAP2 PUSH2 0x100 EXP DUP2 SLOAD DUP2 PUSH20 0xFFFFFFFFFFFFFFFFFFFFFFFFFFFFFFFFFFFFFFFF MUL NOT AND SWAP1 DUP4 PUSH20 0xFFFFFFFFFFFFFFFFFFFFFFFFFFFFFFFFFFFFFFFF AND MUL OR SWAP1 SSTORE POP CALLVALUE PUSH1 0x2 PUSH0 CALLER PUSH20 0xFFFFFFFFFFFFFFFFFFFFFFFFFFFFFFFFFFFFFFFF AND PUSH20 0xFFFFFFFFFFFFFFFFFFFFFFFFFFFFFFFFFFFFFFFF AND DUP2 MSTORE PUSH1 0x20 ADD SWAP1 DUP2 MSTORE PUSH1 0x20 ADD PUSH0 KECCAK256 DUP2 SWAP1 SSTORE POP JUMP JUMPDEST PUSH1 0x1 DUP2 DUP2 SLOAD DUP2 LT PUSH2 0x33C JUMPI PUSH0 DUP1 REVERT JUMPDEST SWAP1 PUSH0 MSTORE PUSH1 0x20 PUSH0 KECCAK256 ADD PUSH0 SWAP2 POP SLOAD SWAP1 PUSH2 0x100 EXP SWAP1 DIV PUSH20 0xFFFFFFFFFFFFFFFFFFFFFFFFFFFFFFFFFFFFFFFF AND DUP2 JUMP JUMPDEST PUSH0 DUP1 PUSH2 0x372 PUSH2 0x3A0 JUMP JUMPDEST SWAP1 POP PUSH0 PUSH8 0xDE0B6B3A7640000 DUP3 DUP6 PUSH2 0x38A SWAP2 SWAP1 PUSH2 0x6DC JUMP JUMPDEST PUSH2 0x394 SWAP2 SWAP1 PUSH2 0x74A JUMP JUMPDEST SWAP1 POP DUP1 SWAP3 POP POP POP SWAP2 SWAP1 POP JUMP JUMPDEST PUSH0 DUP1 PUSH20 0x694AA1769357215DE4FAC081BF1F309ADC325306 SWAP1 POP PUSH0 DUP2 PUSH20 0xFFFFFFFFFFFFFFFFFFFFFFFFFFFFFFFFFFFFFFFF AND PUSH4 0xFEAF968C PUSH1 0x40 MLOAD DUP2 PUSH4 0xFFFFFFFF AND PUSH1 0xE0 SHL DUP2 MSTORE PUSH1 0x4 ADD PUSH1 0xA0 PUSH1 0x40 MLOAD DUP1 DUP4 SUB DUP2 DUP7 GAS STATICCALL ISZERO DUP1 ISZERO PUSH2 0x403 JUMPI RETURNDATASIZE PUSH0 DUP1 RETURNDATACOPY RETURNDATASIZE PUSH0 REVERT JUMPDEST POP POP POP POP PUSH1 0x40 MLOAD RETURNDATASIZE PUSH1 0x1F NOT PUSH1 0x1F DUP3 ADD AND DUP3 ADD DUP1 PUSH1 0x40 MSTORE POP DUP2 ADD SWAP1 PUSH2 0x427 SWAP2 SWAP1 PUSH2 0x800 JUMP JUMPDEST POP POP POP SWAP2 POP POP PUSH5 0x2540BE400 DUP2 PUSH2 0x43E SWAP2 SWAP1 PUSH2 0x877 JUMP JUMPDEST SWAP3 POP POP POP SWAP1 JUMP JUMPDEST PUSH0 DUP1 REVERT JUMPDEST PUSH0 PUSH20 0xFFFFFFFFFFFFFFFFFFFFFFFFFFFFFFFFFFFFFFFF DUP3 AND SWAP1 POP SWAP2 SWAP1 POP JUMP JUMPDEST PUSH0 PUSH2 0x472 DUP3 PUSH2 0x449 JUMP JUMPDEST SWAP1 POP SWAP2 SWAP1 POP JUMP JUMPDEST PUSH2 0x482 DUP2 PUSH2 0x468 JUMP JUMPDEST DUP2 EQ PUSH2 0x48C JUMPI PUSH0 DUP1 REVERT JUMPDEST POP JUMP JUMPDEST PUSH0 DUP2 CALLDATALOAD SWAP1 POP PUSH2 0x49D DUP2 PUSH2 0x479 JUMP JUMPDEST SWAP3 SWAP2 POP POP JUMP JUMPDEST PUSH0 PUSH1 0x20 DUP3 DUP5 SUB SLT ISZERO PUSH2 0x4B8 JUMPI PUSH2 0x4B7 PUSH2 0x445 JUMP JUMPDEST JUMPDEST PUSH0 PUSH2 0x4C5 DUP5 DUP3 DUP6 ADD PUSH2 0x48F JUMP JUMPDEST SWAP2 POP POP SWAP3 SWAP2 POP POP JUMP JUMPDEST PUSH0 DUP2 SWAP1 POP SWAP2 SWAP1 POP JUMP JUMPDEST PUSH2 0x4E0 DUP2 PUSH2 0x4CE JUMP JUMPDEST DUP3 MSTORE POP POP JUMP JUMPDEST PUSH0 PUSH1 0x20 DUP3 ADD SWAP1 POP PUSH2 0x4F9 PUSH0 DUP4 ADD DUP5 PUSH2 0x4D7 JUMP JUMPDEST SWAP3 SWAP2 POP POP JUMP JUMPDEST PUSH2 0x508 DUP2 PUSH2 0x4CE JUMP JUMPDEST DUP2 EQ PUSH2 0x512 JUMPI PUSH0 DUP1 REVERT JUMPDEST POP JUMP JUMPDEST PUSH0 DUP2 CALLDATALOAD SWAP1 POP PUSH2 0x523 DUP2 PUSH2 0x4FF JUMP JUMPDEST SWAP3 SWAP2 POP POP JUMP JUMPDEST PUSH0 PUSH1 0x20 DUP3 DUP5 SUB SLT ISZERO PUSH2 0x53E JUMPI PUSH2 0x53D PUSH2 0x445 JUMP JUMPDEST JUMPDEST PUSH0 PUSH2 0x54B DUP5 DUP3 DUP6 ADD PUSH2 0x515 JUMP JUMPDEST SWAP2 POP POP SWAP3 SWAP2 POP POP JUMP JUMPDEST PUSH2 0x55D DUP2 PUSH2 0x468 JUMP JUMPDEST DUP3 MSTORE POP POP JUMP JUMPDEST PUSH0 PUSH1 0x20 DUP3 ADD SWAP1 POP PUSH2 0x576 PUSH0 DUP4 ADD DUP5 PUSH2 0x554 JUMP JUMPDEST SWAP3 SWAP2 POP POP JUMP JUMPDEST PUSH32 0x4E487B7100000000000000000000000000000000000000000000000000000000 PUSH0 MSTORE PUSH1 0x32 PUSH1 0x4 MSTORE PUSH1 0x24 PUSH0 REVERT JUMPDEST PUSH0 DUP3 DUP3 MSTORE PUSH1 0x20 DUP3 ADD SWAP1 POP SWAP3 SWAP2 POP POP JUMP JUMPDEST PUSH32 0x436F756C64206E6F742073656E642054727920616761696E0000000000000000 PUSH0 DUP3 ADD MSTORE POP JUMP JUMPDEST PUSH0 PUSH2 0x5ED PUSH1 0x18 DUP4 PUSH2 0x5A9 JUMP JUMPDEST SWAP2 POP PUSH2 0x5F8 DUP3 PUSH2 0x5B9 JUMP JUMPDEST PUSH1 0x20 DUP3 ADD SWAP1 POP SWAP2 SWAP1 POP JUMP JUMPDEST PUSH0 PUSH1 0x20 DUP3 ADD SWAP1 POP DUP2 DUP2 SUB PUSH0 DUP4 ADD MSTORE PUSH2 0x61A DUP2 PUSH2 0x5E1 JUMP JUMPDEST SWAP1 POP SWAP2 SWAP1 POP JUMP JUMPDEST PUSH32 0x5468652066756E64696E6720646F6573206E6F74206D65657420626173652072 PUSH0 DUP3 ADD MSTORE PUSH32 0x6571756972656D656E7420000000000000000000000000000000000000000000 PUSH1 0x20 DUP3 ADD MSTORE POP JUMP JUMPDEST PUSH0 PUSH2 0x67B PUSH1 0x2B DUP4 PUSH2 0x5A9 JUMP JUMPDEST SWAP2 POP PUSH2 0x686 DUP3 PUSH2 0x621 JUMP JUMPDEST PUSH1 0x40 DUP3 ADD SWAP1 POP SWAP2 SWAP1 POP JUMP JUMPDEST PUSH0 PUSH1 0x20 DUP3 ADD SWAP1 POP DUP2 DUP2 SUB PUSH0 DUP4 ADD MSTORE PUSH2 0x6A8 DUP2 PUSH2 0x66F JUMP JUMPDEST SWAP1 POP SWAP2 SWAP1 POP JUMP JUMPDEST PUSH32 0x4E487B7100000000000000000000000000000000000000000000000000000000 PUSH0 MSTORE PUSH1 0x11 PUSH1 0x4 MSTORE PUSH1 0x24 PUSH0 REVERT JUMPDEST PUSH0 PUSH2 0x6E6 DUP3 PUSH2 0x4CE JUMP JUMPDEST SWAP2 POP PUSH2 0x6F1 DUP4 PUSH2 0x4CE JUMP JUMPDEST SWAP3 POP DUP3 DUP3 MUL PUSH2 0x6FF DUP2 PUSH2 0x4CE JUMP JUMPDEST SWAP2 POP DUP3 DUP3 DIV DUP5 EQ DUP4 ISZERO OR PUSH2 0x716 JUMPI PUSH2 0x715 PUSH2 0x6AF JUMP JUMPDEST JUMPDEST POP SWAP3 SWAP2 POP POP JUMP JUMPDEST PUSH32 0x4E487B7100000000000000000000000000000000000000000000000000000000 PUSH0 MSTORE PUSH1 0x12 PUSH1 0x4 MSTORE PUSH1 0x24 PUSH0 REVERT JUMPDEST PUSH0 PUSH2 0x754 DUP3 PUSH2 0x4CE JUMP JUMPDEST SWAP2 POP PUSH2 0x75F DUP4 PUSH2 0x4CE JUMP JUMPDEST SWAP3 POP DUP3 PUSH2 0x76F JUMPI PUSH2 0x76E PUSH2 0x71D JUMP JUMPDEST JUMPDEST DUP3 DUP3 DIV SWAP1 POP SWAP3 SWAP2 POP POP JUMP JUMPDEST PUSH0 PUSH10 0xFFFFFFFFFFFFFFFFFFFF DUP3 AND SWAP1 POP SWAP2 SWAP1 POP JUMP JUMPDEST PUSH2 0x798 DUP2 PUSH2 0x77A JUMP JUMPDEST DUP2 EQ PUSH2 0x7A2 JUMPI PUSH0 DUP1 REVERT JUMPDEST POP JUMP JUMPDEST PUSH0 DUP2 MLOAD SWAP1 POP PUSH2 0x7B3 DUP2 PUSH2 0x78F JUMP JUMPDEST SWAP3 SWAP2 POP POP JUMP JUMPDEST PUSH0 DUP2 SWAP1 POP SWAP2 SWAP1 POP JUMP JUMPDEST PUSH2 0x7CB DUP2 PUSH2 0x7B9 JUMP JUMPDEST DUP2 EQ PUSH2 0x7D5 JUMPI PUSH0 DUP1 REVERT JUMPDEST POP JUMP JUMPDEST PUSH0 DUP2 MLOAD SWAP1 POP PUSH2 0x7E6 DUP2 PUSH2 0x7C2 JUMP JUMPDEST SWAP3 SWAP2 POP POP JUMP JUMPDEST PUSH0 DUP2 MLOAD SWAP1 POP PUSH2 0x7FA DUP2 PUSH2 0x4FF JUMP JUMPDEST SWAP3 SWAP2 POP POP JUMP JUMPDEST PUSH0 DUP1 PUSH0 DUP1 PUSH0 PUSH1 0xA0 DUP7 DUP9 SUB SLT ISZERO PUSH2 0x819 JUMPI PUSH2 0x818 PUSH2 0x445 JUMP JUMPDEST JUMPDEST PUSH0 PUSH2 0x826 DUP9 DUP3 DUP10 ADD PUSH2 0x7A5 JUMP JUMPDEST SWAP6 POP POP PUSH1 0x20 PUSH2 0x837 DUP9 DUP3 DUP10 ADD PUSH2 0x7D8 JUMP JUMPDEST SWAP5 POP POP PUSH1 0x40 PUSH2 0x848 DUP9 DUP3 DUP10 ADD PUSH2 0x7EC JUMP JUMPDEST SWAP4 POP POP PUSH1 0x60 PUSH2 0x859 DUP9 DUP3 DUP10 ADD PUSH2 0x7EC JUMP JUMPDEST SWAP3 POP POP PUSH1 0x80 PUSH2 0x86A DUP9 DUP3 DUP10 ADD PUSH2 0x7A5 JUMP JUMPDEST SWAP2 POP POP SWAP3 SWAP6 POP SWAP3 SWAP6 SWAP1 SWAP4 POP JUMP JUMPDEST PUSH0 PUSH2 0x881 DUP3 PUSH2 0x7B9 JUMP JUMPDEST SWAP2 POP PUSH2 0x88C DUP4 PUSH2 0x7B9 JUMP JUMPDEST SWAP3 POP DUP3 DUP3 MUL PUSH2 0x89A DUP2 PUSH2 0x7B9 JUMP JUMPDEST SWAP2 POP PUSH32 0x8000000000000000000000000000000000000000000000000000000000000000 DUP5 EQ PUSH0 DUP5 SLT AND ISZERO PUSH2 0x8D1 JUMPI PUSH2 0x8D0 PUSH2 0x6AF JUMP JUMPDEST JUMPDEST DUP3 DUP3 SDIV DUP5 EQ DUP4 ISZERO OR PUSH2 0x8E6 JUMPI PUSH2 0x8E5 PUSH2 0x6AF JUMP JUMPDEST JUMPDEST POP SWAP3 SWAP2 POP POP JUMP INVALID LOG2 PUSH5 0x6970667358 0x22 SLT KECCAK256 PUSH19 0x1E13CB6BE668B456D3BEDFAC1C75D925A6F0BD PUSH19 0xF7470129BE452E6FC1C82364736F6C63430008 BYTE STOP CALLER "
				},
				"gasEstimates": {
					"creation": {
						"codeDepositCost": "467800",
						"executionCost": "22608",
						"totalCost": "490408"
					},
					"external": {
						"Withdraw()": "infinite",
						"fund()": "infinite",
						"fundingGivenByAddress(address)": "2780",
						"minimumUSD()": "2424",
						"patrons(uint256)": "5010"
					}
				},
				"methodIdentifiers": {
					"Withdraw()": "57ea89b6",
					"fund()": "b60d4288",
					"fundingGivenByAddress(address)": "26115239",
					"minimumUSD()": "3430a88c",
					"patrons(uint256)": "d28dfb22"
				}
			},
			"storageLayout": {
				"storage": [
					{
						"astId": 58,
						"contract": "contracts/FundMe/FundMe.sol:FundMe",
						"label": "minimumUSD",
						"offset": 0,
						"slot": "0",
						"type": "t_uint256"
					},
					{
						"astId": 61,
						"contract": "contracts/FundMe/FundMe.sol:FundMe",
						"label": "patrons",
						"offset": 0,
						"slot": "1",
						"type": "t_array(t_address)dyn_storage"
					},
					{
						"astId": 65,
						"contract": "contracts/FundMe/FundMe.sol:FundMe",
						"label": "fundingGivenByAddress",
						"offset": 0,
						"slot": "2",
						"type": "t_mapping(t_address,t_uint256)"
					}
				],
				"types": {
					"t_address": {
						"encoding": "inplace",
						"label": "address",
						"numberOfBytes": "20"
					},
					"t_array(t_address)dyn_storage": {
						"base": "t_address",
						"encoding": "dynamic_array",
						"label": "address[]",
						"numberOfBytes": "32"
					},
					"t_mapping(t_address,t_uint256)": {
						"encoding": "mapping",
						"key": "t_address",
						"label": "mapping(address => uint256)",
						"numberOfBytes": "32",
						"value": "t_uint256"
					},
					"t_uint256": {
						"encoding": "inplace",
						"label": "uint256",
						"numberOfBytes": "32"
					}
				}
			},
			"userdoc": {
				"kind": "user",
				"methods": {},
				"version": 1
			}
		}
	}
}