{
	"contracts/FundMe/FundMe.sol": {
		"FundMe": {
			"abi": [
				{
					"inputs": [],
					"stateMutability": "nonpayable",
					"type": "constructor"
				},
				{
					"inputs": [],
					"name": "Withdraw",
					"outputs": [],
					"stateMutability": "nonpayable",
					"type": "function"
				},
				{
					"inputs": [],
					"name": "fund",
					"outputs": [],
					"stateMutability": "payable",
					"type": "function"
				},
				{
					"inputs": [
						{
							"internalType": "address",
							"name": "",
							"type": "address"
						}
					],
					"name": "fundingGivenByAddress",
					"outputs": [
						{
							"internalType": "uint256",
							"name": "",
							"type": "uint256"
						}
					],
					"stateMutability": "view",
					"type": "function"
				},
				{
					"inputs": [],
					"name": "minimumUSD",
					"outputs": [
						{
							"internalType": "uint256",
							"name": "",
							"type": "uint256"
						}
					],
					"stateMutability": "view",
					"type": "function"
				},
				{
					"inputs": [],
					"name": "owner",
					"outputs": [
						{
							"internalType": "address",
							"name": "",
							"type": "address"
						}
					],
					"stateMutability": "view",
					"type": "function"
				},
				{
					"inputs": [
						{
							"internalType": "uint256",
							"name": "",
							"type": "uint256"
						}
					],
					"name": "patrons",
					"outputs": [
						{
							"internalType": "address",
							"name": "",
							"type": "address"
						}
					],
					"stateMutability": "view",
					"type": "function"
				}
			],
			"devdoc": {
				"kind": "dev",
				"methods": {},
				"version": 1
			},
			"evm": {
				"assembly": "    /* \"contracts/FundMe/FundMe.sol\":286:2013  contract FundMe{... */\n  mstore(0x40, 0x80)\n    /* \"contracts/FundMe/FundMe.sol\":375:382  25*1e18 */\n  0x015af1d78b58c40000\n    /* \"contracts/FundMe/FundMe.sol\":347:382  uint256 public minimumUSD = 25*1e18 */\n  0x00\n  sstore\n    /* \"contracts/FundMe/FundMe.sol\":721:1052  constructor(){... */\n  callvalue\n  dup1\n  iszero\n  tag_1\n  jumpi\n  0x00\n  dup1\n  revert\ntag_1:\n  pop\n    /* \"contracts/FundMe/FundMe.sol\":1034:1044  msg.sender */\n  caller\n    /* \"contracts/FundMe/FundMe.sol\":1026:1031  owner */\n  0x03\n  0x00\n    /* \"contracts/FundMe/FundMe.sol\":1026:1044  owner = msg.sender */\n  0x0100\n  exp\n  dup2\n  sload\n  dup2\n  0xffffffffffffffffffffffffffffffffffffffff\n  mul\n  not\n  and\n  swap1\n  dup4\n  0xffffffffffffffffffffffffffffffffffffffff\n  and\n  mul\n  or\n  swap1\n  sstore\n  pop\n    /* \"contracts/FundMe/FundMe.sol\":286:2013  contract FundMe{... */\n  dataSize(sub_0)\n  dup1\n  dataOffset(sub_0)\n  0x00\n  codecopy\n  0x00\n  return\nstop\n\nsub_0: assembly {\n        /* \"contracts/FundMe/FundMe.sol\":286:2013  contract FundMe{... */\n      mstore(0x40, 0x80)\n      jumpi(tag_1, lt(calldatasize, 0x04))\n      shr(0xe0, calldataload(0x00))\n      dup1\n      0x26115239\n      eq\n      tag_2\n      jumpi\n      dup1\n      0x3430a88c\n      eq\n      tag_3\n      jumpi\n      dup1\n      0x57ea89b6\n      eq\n      tag_4\n      jumpi\n      dup1\n      0x8da5cb5b\n      eq\n      tag_5\n      jumpi\n      dup1\n      0xb60d4288\n      eq\n      tag_6\n      jumpi\n      dup1\n      0xd28dfb22\n      eq\n      tag_7\n      jumpi\n    tag_1:\n      0x00\n      dup1\n      revert\n        /* \"contracts/FundMe/FundMe.sol\":427:482  mapping(address=> uint256) public fundingGivenByAddress */\n    tag_2:\n      callvalue\n      dup1\n      iszero\n      tag_8\n      jumpi\n      0x00\n      dup1\n      revert\n    tag_8:\n      pop\n      tag_9\n      0x04\n      dup1\n      calldatasize\n      sub\n      dup2\n      add\n      swap1\n      tag_10\n      swap2\n      swap1\n      tag_11\n      jump\t// in\n    tag_10:\n      tag_12\n      jump\t// in\n    tag_9:\n      mload(0x40)\n      tag_13\n      swap2\n      swap1\n      tag_14\n      jump\t// in\n    tag_13:\n      mload(0x40)\n      dup1\n      swap2\n      sub\n      swap1\n      return\n        /* \"contracts/FundMe/FundMe.sol\":347:382  uint256 public minimumUSD = 25*1e18 */\n    tag_3:\n      callvalue\n      dup1\n      iszero\n      tag_15\n      jumpi\n      0x00\n      dup1\n      revert\n    tag_15:\n      pop\n      tag_16\n      tag_17\n      jump\t// in\n    tag_16:\n      mload(0x40)\n      tag_18\n      swap2\n      swap1\n      tag_14\n      jump\t// in\n    tag_18:\n      mload(0x40)\n      dup1\n      swap2\n      sub\n      swap1\n      return\n        /* \"contracts/FundMe/FundMe.sol\":1610:2008  function Withdraw() public onlyOwner {... */\n    tag_4:\n      callvalue\n      dup1\n      iszero\n      tag_19\n      jumpi\n      0x00\n      dup1\n      revert\n    tag_19:\n      pop\n      tag_20\n      tag_21\n      jump\t// in\n    tag_20:\n      stop\n        /* \"contracts/FundMe/FundMe.sol\":694:714  address public owner */\n    tag_5:\n      callvalue\n      dup1\n      iszero\n      tag_22\n      jumpi\n      0x00\n      dup1\n      revert\n    tag_22:\n      pop\n      tag_23\n      tag_24\n      jump\t// in\n    tag_23:\n      mload(0x40)\n      tag_25\n      swap2\n      swap1\n      tag_26\n      jump\t// in\n    tag_25:\n      mload(0x40)\n      dup1\n      swap2\n      sub\n      swap1\n      return\n        /* \"contracts/FundMe/FundMe.sol\":1060:1323  function fund() public payable {... */\n    tag_6:\n      tag_27\n      tag_28\n      jump\t// in\n    tag_27:\n      stop\n        /* \"contracts/FundMe/FundMe.sol\":395:420  address[] public  patrons */\n    tag_7:\n      callvalue\n      dup1\n      iszero\n      tag_29\n      jumpi\n      0x00\n      dup1\n      revert\n    tag_29:\n      pop\n      tag_30\n      0x04\n      dup1\n      calldatasize\n      sub\n      dup2\n      add\n      swap1\n      tag_31\n      swap2\n      swap1\n      tag_32\n      jump\t// in\n    tag_31:\n      tag_33\n      jump\t// in\n    tag_30:\n      mload(0x40)\n      tag_34\n      swap2\n      swap1\n      tag_26\n      jump\t// in\n    tag_34:\n      mload(0x40)\n      dup1\n      swap2\n      sub\n      swap1\n      return\n        /* \"contracts/FundMe/FundMe.sol\":427:482  mapping(address=> uint256) public fundingGivenByAddress */\n    tag_12:\n      mstore(0x20, 0x02)\n      dup1\n      0x00\n      mstore\n      keccak256(0x00, 0x40)\n      0x00\n      swap2\n      pop\n      swap1\n      pop\n      sload\n      dup2\n      jump\t// out\n        /* \"contracts/FundMe/FundMe.sol\":347:382  uint256 public minimumUSD = 25*1e18 */\n    tag_17:\n      sload(0x00)\n      dup2\n      jump\t// out\n        /* \"contracts/FundMe/FundMe.sol\":1610:2008  function Withdraw() public onlyOwner {... */\n    tag_21:\n        /* \"contracts/FundMe/FundMe.sol\":1381:1386  owner */\n      0x03\n      0x00\n      swap1\n      sload\n      swap1\n      0x0100\n      exp\n      swap1\n      div\n      0xffffffffffffffffffffffffffffffffffffffff\n      and\n        /* \"contracts/FundMe/FundMe.sol\":1369:1386  msg.sender==owner */\n      0xffffffffffffffffffffffffffffffffffffffff\n      and\n        /* \"contracts/FundMe/FundMe.sol\":1369:1379  msg.sender */\n      caller\n        /* \"contracts/FundMe/FundMe.sol\":1369:1386  msg.sender==owner */\n      0xffffffffffffffffffffffffffffffffffffffff\n      and\n      eq\n        /* \"contracts/FundMe/FundMe.sol\":1361:1405  require(msg.sender==owner,\"Cannot withdraw\") */\n      tag_36\n      jumpi\n      mload(0x40)\n      0x08c379a000000000000000000000000000000000000000000000000000000000\n      dup2\n      mstore\n      0x04\n      add\n      tag_37\n      swap1\n      tag_38\n      jump\t// in\n    tag_37:\n      mload(0x40)\n      dup1\n      swap2\n      sub\n      swap1\n      revert\n    tag_36:\n        /* \"contracts/FundMe/FundMe.sol\":1748:1757  uint256 i */\n      0x00\n        /* \"contracts/FundMe/FundMe.sol\":1744:1882  for(uint256 i = 0;i<patrons.length; i++){... */\n    tag_40:\n        /* \"contracts/FundMe/FundMe.sol\":1764:1771  patrons */\n      0x01\n        /* \"contracts/FundMe/FundMe.sol\":1764:1778  patrons.length */\n      dup1\n      sload\n      swap1\n      pop\n        /* \"contracts/FundMe/FundMe.sol\":1762:1763  i */\n      dup2\n        /* \"contracts/FundMe/FundMe.sol\":1762:1778  i<patrons.length */\n      lt\n        /* \"contracts/FundMe/FundMe.sol\":1744:1882  for(uint256 i = 0;i<patrons.length; i++){... */\n      iszero\n      tag_41\n      jumpi\n        /* \"contracts/FundMe/FundMe.sol\":1799:1813  address patron */\n      0x00\n        /* \"contracts/FundMe/FundMe.sol\":1816:1823  patrons */\n      0x01\n        /* \"contracts/FundMe/FundMe.sol\":1824:1825  i */\n      dup3\n        /* \"contracts/FundMe/FundMe.sol\":1816:1826  patrons[i] */\n      dup2\n      sload\n      dup2\n      lt\n      tag_43\n      jumpi\n      tag_44\n      tag_45\n      jump\t// in\n    tag_44:\n    tag_43:\n      swap1\n      0x00\n      mstore\n      keccak256(0x00, 0x20)\n      add\n      0x00\n      swap1\n      sload\n      swap1\n      0x0100\n      exp\n      swap1\n      div\n      0xffffffffffffffffffffffffffffffffffffffff\n      and\n        /* \"contracts/FundMe/FundMe.sol\":1799:1826  address patron = patrons[i] */\n      swap1\n      pop\n        /* \"contracts/FundMe/FundMe.sol\":1873:1874  0 */\n      0x00\n        /* \"contracts/FundMe/FundMe.sol\":1841:1862  fundingGivenByAddress */\n      0x02\n        /* \"contracts/FundMe/FundMe.sol\":1841:1870  fundingGivenByAddress[patron] */\n      0x00\n        /* \"contracts/FundMe/FundMe.sol\":1863:1869  patron */\n      dup4\n        /* \"contracts/FundMe/FundMe.sol\":1841:1870  fundingGivenByAddress[patron] */\n      0xffffffffffffffffffffffffffffffffffffffff\n      and\n      0xffffffffffffffffffffffffffffffffffffffff\n      and\n      dup2\n      mstore\n      0x20\n      add\n      swap1\n      dup2\n      mstore\n      0x20\n      add\n      0x00\n      keccak256\n        /* \"contracts/FundMe/FundMe.sol\":1841:1874  fundingGivenByAddress[patron] = 0 */\n      dup2\n      swap1\n      sstore\n      pop\n        /* \"contracts/FundMe/FundMe.sol\":1784:1882  {... */\n      pop\n        /* \"contracts/FundMe/FundMe.sol\":1780:1783  i++ */\n      dup1\n      dup1\n      0x01\n      add\n      swap2\n      pop\n      pop\n        /* \"contracts/FundMe/FundMe.sol\":1744:1882  for(uint256 i = 0;i<patrons.length; i++){... */\n      jump(tag_40)\n    tag_41:\n      pop\n        /* \"contracts/FundMe/FundMe.sol\":1912:1913  0 */\n      0x00\n        /* \"contracts/FundMe/FundMe.sol\":1898:1914  new address[](0) */\n      0xffffffffffffffff\n      dup2\n      gt\n      iszero\n      tag_47\n      jumpi\n      tag_48\n      tag_49\n      jump\t// in\n    tag_48:\n    tag_47:\n      mload(0x40)\n      swap1\n      dup1\n      dup3\n      mstore\n      dup1\n      0x20\n      mul\n      0x20\n      add\n      dup3\n      add\n      0x40\n      mstore\n      dup1\n      iszero\n      tag_50\n      jumpi\n      dup2\n      0x20\n      add\n      0x20\n      dup3\n      mul\n      dup1\n      calldatasize\n      dup4\n      calldatacopy\n      dup1\n      dup3\n      add\n      swap2\n      pop\n      pop\n      swap1\n      pop\n    tag_50:\n      pop\n        /* \"contracts/FundMe/FundMe.sol\":1888:1895  patrons */\n      0x01\n        /* \"contracts/FundMe/FundMe.sol\":1888:1914  patrons = new address[](0) */\n      swap1\n      dup1\n      mload\n      swap1\n      0x20\n      add\n      swap1\n      tag_51\n      swap3\n      swap2\n      swap1\n      tag_52\n      jump\t// in\n    tag_51:\n      pop\n        /* \"contracts/FundMe/FundMe.sol\":1937:1947  msg.sender */\n      caller\n        /* \"contracts/FundMe/FundMe.sol\":1929:1953  payable(msg.sender).send */\n      0xffffffffffffffffffffffffffffffffffffffff\n      and\n        /* \"contracts/FundMe/FundMe.sol\":1929:1976  payable(msg.sender).send(address(this).balance) */\n      0x08fc\n        /* \"contracts/FundMe/FundMe.sol\":1954:1975  address(this).balance */\n      selfbalance\n        /* \"contracts/FundMe/FundMe.sol\":1929:1976  payable(msg.sender).send(address(this).balance) */\n      swap1\n      dup2\n      iszero\n      mul\n      swap1\n      mload(0x40)\n      0x00\n      mload(0x40)\n      dup1\n      dup4\n      sub\n      dup2\n      dup6\n      dup9\n      dup9\n      call\n      swap4\n      pop\n      pop\n      pop\n      pop\n        /* \"contracts/FundMe/FundMe.sol\":1921:2004  require(payable(msg.sender).send(address(this).balance),\"Could not send Try again\") */\n      tag_54\n      jumpi\n      mload(0x40)\n      0x08c379a000000000000000000000000000000000000000000000000000000000\n      dup2\n      mstore\n      0x04\n      add\n      tag_55\n      swap1\n      tag_56\n      jump\t// in\n    tag_55:\n      mload(0x40)\n      dup1\n      swap2\n      sub\n      swap1\n      revert\n    tag_54:\n        /* \"contracts/FundMe/FundMe.sol\":1610:2008  function Withdraw() public onlyOwner {... */\n      jump\t// out\n        /* \"contracts/FundMe/FundMe.sol\":694:714  address public owner */\n    tag_24:\n      0x03\n      0x00\n      swap1\n      sload\n      swap1\n      0x0100\n      exp\n      swap1\n      div\n      0xffffffffffffffffffffffffffffffffffffffff\n      and\n      dup2\n      jump\t// out\n        /* \"contracts/FundMe/FundMe.sol\":1060:1323  function fund() public payable {... */\n    tag_28:\n        /* \"contracts/FundMe/FundMe.sol\":1150:1160  minimumUSD */\n      sload(0x00)\n        /* \"contracts/FundMe/FundMe.sol\":1119:1148  msg.value.getConversionRate() */\n      tag_58\n        /* \"contracts/FundMe/FundMe.sol\":1119:1128  msg.value */\n      callvalue\n        /* \"contracts/FundMe/FundMe.sol\":1119:1146  msg.value.getConversionRate */\n      tag_59\n        /* \"contracts/FundMe/FundMe.sol\":1119:1148  msg.value.getConversionRate() */\n      jump\t// in\n    tag_58:\n        /* \"contracts/FundMe/FundMe.sol\":1119:1160  msg.value.getConversionRate()>=minimumUSD */\n      lt\n      iszero\n        /* \"contracts/FundMe/FundMe.sol\":1111:1207  require(msg.value.getConversionRate()>=minimumUSD,\"The funding does not meet base requirement \") */\n      tag_60\n      jumpi\n      mload(0x40)\n      0x08c379a000000000000000000000000000000000000000000000000000000000\n      dup2\n      mstore\n      0x04\n      add\n      tag_61\n      swap1\n      tag_62\n      jump\t// in\n    tag_61:\n      mload(0x40)\n      dup1\n      swap2\n      sub\n      swap1\n      revert\n    tag_60:\n        /* \"contracts/FundMe/FundMe.sol\":1226:1233  patrons */\n      0x01\n        /* \"contracts/FundMe/FundMe.sol\":1239:1249  msg.sender */\n      caller\n        /* \"contracts/FundMe/FundMe.sol\":1226:1250  patrons.push(msg.sender) */\n      swap1\n      dup1\n      0x01\n      dup2\n      sload\n      add\n      dup1\n      dup3\n      sstore\n      dup1\n      swap2\n      pop\n      pop\n      0x01\n      swap1\n      sub\n      swap1\n      0x00\n      mstore\n      keccak256(0x00, 0x20)\n      add\n      0x00\n      swap1\n      swap2\n      swap1\n      swap2\n      swap1\n      swap2\n      0x0100\n      exp\n      dup2\n      sload\n      dup2\n      0xffffffffffffffffffffffffffffffffffffffff\n      mul\n      not\n      and\n      swap1\n      dup4\n      0xffffffffffffffffffffffffffffffffffffffff\n      and\n      mul\n      or\n      swap1\n      sstore\n      pop\n        /* \"contracts/FundMe/FundMe.sol\":1306:1315  msg.value */\n      callvalue\n        /* \"contracts/FundMe/FundMe.sol\":1272:1293  fundingGivenByAddress */\n      0x02\n        /* \"contracts/FundMe/FundMe.sol\":1272:1305  fundingGivenByAddress[msg.sender] */\n      0x00\n        /* \"contracts/FundMe/FundMe.sol\":1294:1304  msg.sender */\n      caller\n        /* \"contracts/FundMe/FundMe.sol\":1272:1305  fundingGivenByAddress[msg.sender] */\n      0xffffffffffffffffffffffffffffffffffffffff\n      and\n      0xffffffffffffffffffffffffffffffffffffffff\n      and\n      dup2\n      mstore\n      0x20\n      add\n      swap1\n      dup2\n      mstore\n      0x20\n      add\n      0x00\n      keccak256\n        /* \"contracts/FundMe/FundMe.sol\":1272:1315  fundingGivenByAddress[msg.sender]=msg.value */\n      dup2\n      swap1\n      sstore\n      pop\n        /* \"contracts/FundMe/FundMe.sol\":1060:1323  function fund() public payable {... */\n      jump\t// out\n        /* \"contracts/FundMe/FundMe.sol\":395:420  address[] public  patrons */\n    tag_33:\n      0x01\n      dup2\n      dup2\n      sload\n      dup2\n      lt\n      tag_64\n      jumpi\n      0x00\n      dup1\n      revert\n    tag_64:\n      swap1\n      0x00\n      mstore\n      keccak256(0x00, 0x20)\n      add\n      0x00\n      swap2\n      pop\n      sload\n      swap1\n      0x0100\n      exp\n      swap1\n      div\n      0xffffffffffffffffffffffffffffffffffffffff\n      and\n      dup2\n      jump\t// out\n        /* \"contracts/FundMe/PriceConverter.sol\":640:856  function getConversionRate(uint256 ethAmount) internal view  returns(uint256) {... */\n    tag_59:\n        /* \"contracts/FundMe/PriceConverter.sol\":709:716  uint256 */\n      0x00\n        /* \"contracts/FundMe/PriceConverter.sol\":729:745  uint256 ethPrice */\n      dup1\n        /* \"contracts/FundMe/PriceConverter.sol\":747:757  getPrice() */\n      tag_67\n        /* \"contracts/FundMe/PriceConverter.sol\":747:755  getPrice */\n      tag_68\n        /* \"contracts/FundMe/PriceConverter.sol\":747:757  getPrice() */\n      jump\t// in\n    tag_67:\n        /* \"contracts/FundMe/PriceConverter.sol\":729:757  uint256 ethPrice= getPrice() */\n      swap1\n      pop\n        /* \"contracts/FundMe/PriceConverter.sol\":768:789  uint256 ethPriceInUsd */\n      0x00\n        /* \"contracts/FundMe/PriceConverter.sol\":813:817  1e18 */\n      0x0de0b6b3a7640000\n        /* \"contracts/FundMe/PriceConverter.sol\":803:811  ethPrice */\n      dup3\n        /* \"contracts/FundMe/PriceConverter.sol\":793:802  ethAmount */\n      dup6\n        /* \"contracts/FundMe/PriceConverter.sol\":793:811  ethAmount*ethPrice */\n      tag_69\n      swap2\n      swap1\n      tag_70\n      jump\t// in\n    tag_69:\n        /* \"contracts/FundMe/PriceConverter.sol\":792:817  (ethAmount*ethPrice)/1e18 */\n      tag_71\n      swap2\n      swap1\n      tag_72\n      jump\t// in\n    tag_71:\n        /* \"contracts/FundMe/PriceConverter.sol\":768:817  uint256 ethPriceInUsd = (ethAmount*ethPrice)/1e18 */\n      swap1\n      pop\n        /* \"contracts/FundMe/PriceConverter.sol\":835:848  ethPriceInUsd */\n      dup1\n        /* \"contracts/FundMe/PriceConverter.sol\":828:848  return ethPriceInUsd */\n      swap3\n      pop\n      pop\n      pop\n        /* \"contracts/FundMe/PriceConverter.sol\":640:856  function getConversionRate(uint256 ethAmount) internal view  returns(uint256) {... */\n      swap2\n      swap1\n      pop\n      jump\t// out\n        /* \"contracts/FundMe/PriceConverter.sol\":208:632  function getPrice() internal   view returns(uint256)  {... */\n    tag_68:\n        /* \"contracts/FundMe/PriceConverter.sol\":252:259  uint256 */\n      0x00\n        /* \"contracts/FundMe/PriceConverter.sol\":430:461  AggregatorV3Interface priceFeed */\n      dup1\n        /* \"contracts/FundMe/PriceConverter.sol\":486:528  0x694AA1769357215DE4FAC081bf1f309aDC325306 */\n      0x694aa1769357215de4fac081bf1f309adc325306\n        /* \"contracts/FundMe/PriceConverter.sol\":430:529  AggregatorV3Interface priceFeed = AggregatorV3Interface(0x694AA1769357215DE4FAC081bf1f309aDC325306) */\n      swap1\n      pop\n        /* \"contracts/FundMe/PriceConverter.sol\":542:554  int256 price */\n      0x00\n        /* \"contracts/FundMe/PriceConverter.sol\":559:568  priceFeed */\n      dup2\n        /* \"contracts/FundMe/PriceConverter.sol\":559:584  priceFeed.latestRoundData */\n      0xffffffffffffffffffffffffffffffffffffffff\n      and\n      0xfeaf968c\n        /* \"contracts/FundMe/PriceConverter.sol\":559:586  priceFeed.latestRoundData() */\n      mload(0x40)\n      dup2\n      0xffffffff\n      and\n      0xe0\n      shl\n      dup2\n      mstore\n      0x04\n      add\n      0xa0\n      mload(0x40)\n      dup1\n      dup4\n      sub\n      dup2\n      dup7\n      gas\n      staticcall\n      iszero\n      dup1\n      iszero\n      tag_75\n      jumpi\n      returndatasize\n      0x00\n      dup1\n      returndatacopy\n      revert(0x00, returndatasize)\n    tag_75:\n      pop\n      pop\n      pop\n      pop\n      mload(0x40)\n      returndatasize\n      not(0x1f)\n      0x1f\n      dup3\n      add\n      and\n      dup3\n      add\n      dup1\n      0x40\n      mstore\n      pop\n      dup2\n      add\n      swap1\n      tag_76\n      swap2\n      swap1\n      tag_77\n      jump\t// in\n    tag_76:\n        /* \"contracts/FundMe/PriceConverter.sol\":540:586  (,int256 price,,,)=priceFeed.latestRoundData() */\n      pop\n      pop\n      pop\n      swap2\n      pop\n      pop\n        /* \"contracts/FundMe/PriceConverter.sol\":619:623  1e10 */\n      0x02540be400\n        /* \"contracts/FundMe/PriceConverter.sol\":613:618  price */\n      dup2\n        /* \"contracts/FundMe/PriceConverter.sol\":613:623  price*1e10 */\n      tag_78\n      swap2\n      swap1\n      tag_79\n      jump\t// in\n    tag_78:\n        /* \"contracts/FundMe/PriceConverter.sol\":598:624  return uint256(price*1e10) */\n      swap3\n      pop\n      pop\n      pop\n        /* \"contracts/FundMe/PriceConverter.sol\":208:632  function getPrice() internal   view returns(uint256)  {... */\n      swap1\n      jump\t// out\n    tag_52:\n      dup3\n      dup1\n      sload\n      dup3\n      dup3\n      sstore\n      swap1\n      0x00\n      mstore\n      keccak256(0x00, 0x20)\n      swap1\n      dup2\n      add\n      swap3\n      dup3\n      iszero\n      tag_80\n      jumpi\n      swap2\n      0x20\n      mul\n      dup3\n      add\n    tag_81:\n      dup3\n      dup2\n      gt\n      iszero\n      tag_82\n      jumpi\n      dup3\n      mload\n      dup3\n      exp(0x0100, 0x00)\n      dup2\n      sload\n      dup2\n      0xffffffffffffffffffffffffffffffffffffffff\n      mul\n      not\n      and\n      swap1\n      dup4\n      0xffffffffffffffffffffffffffffffffffffffff\n      and\n      mul\n      or\n      swap1\n      sstore\n      pop\n      swap2\n      0x20\n      add\n      swap2\n      swap1\n      0x01\n      add\n      swap1\n      jump(tag_81)\n    tag_82:\n    tag_80:\n      pop\n      swap1\n      pop\n      tag_83\n      swap2\n      swap1\n      tag_84\n      jump\t// in\n    tag_83:\n      pop\n      swap1\n      jump\t// out\n    tag_84:\n    tag_85:\n      dup1\n      dup3\n      gt\n      iszero\n      tag_86\n      jumpi\n      0x00\n      dup2\n      0x00\n      swap1\n      sstore\n      pop\n      0x01\n      add\n      jump(tag_85)\n    tag_86:\n      pop\n      swap1\n      jump\t// out\n        /* \"#utility.yul\":88:205   */\n    tag_88:\n        /* \"#utility.yul\":197:198   */\n      0x00\n        /* \"#utility.yul\":194:195   */\n      dup1\n        /* \"#utility.yul\":187:199   */\n      revert\n        /* \"#utility.yul\":334:460   */\n    tag_90:\n        /* \"#utility.yul\":371:378   */\n      0x00\n        /* \"#utility.yul\":411:453   */\n      0xffffffffffffffffffffffffffffffffffffffff\n        /* \"#utility.yul\":404:409   */\n      dup3\n        /* \"#utility.yul\":400:454   */\n      and\n        /* \"#utility.yul\":389:454   */\n      swap1\n      pop\n        /* \"#utility.yul\":334:460   */\n      swap2\n      swap1\n      pop\n      jump\t// out\n        /* \"#utility.yul\":466:562   */\n    tag_91:\n        /* \"#utility.yul\":503:510   */\n      0x00\n        /* \"#utility.yul\":532:556   */\n      tag_121\n        /* \"#utility.yul\":550:555   */\n      dup3\n        /* \"#utility.yul\":532:556   */\n      tag_90\n      jump\t// in\n    tag_121:\n        /* \"#utility.yul\":521:556   */\n      swap1\n      pop\n        /* \"#utility.yul\":466:562   */\n      swap2\n      swap1\n      pop\n      jump\t// out\n        /* \"#utility.yul\":568:690   */\n    tag_92:\n        /* \"#utility.yul\":641:665   */\n      tag_123\n        /* \"#utility.yul\":659:664   */\n      dup2\n        /* \"#utility.yul\":641:665   */\n      tag_91\n      jump\t// in\n    tag_123:\n        /* \"#utility.yul\":634:639   */\n      dup2\n        /* \"#utility.yul\":631:666   */\n      eq\n        /* \"#utility.yul\":621:684   */\n      tag_124\n      jumpi\n        /* \"#utility.yul\":680:681   */\n      0x00\n        /* \"#utility.yul\":677:678   */\n      dup1\n        /* \"#utility.yul\":670:682   */\n      revert\n        /* \"#utility.yul\":621:684   */\n    tag_124:\n        /* \"#utility.yul\":568:690   */\n      pop\n      jump\t// out\n        /* \"#utility.yul\":696:835   */\n    tag_93:\n        /* \"#utility.yul\":742:747   */\n      0x00\n        /* \"#utility.yul\":780:786   */\n      dup2\n        /* \"#utility.yul\":767:787   */\n      calldataload\n        /* \"#utility.yul\":758:787   */\n      swap1\n      pop\n        /* \"#utility.yul\":796:829   */\n      tag_126\n        /* \"#utility.yul\":823:828   */\n      dup2\n        /* \"#utility.yul\":796:829   */\n      tag_92\n      jump\t// in\n    tag_126:\n        /* \"#utility.yul\":696:835   */\n      swap3\n      swap2\n      pop\n      pop\n      jump\t// out\n        /* \"#utility.yul\":841:1170   */\n    tag_11:\n        /* \"#utility.yul\":900:906   */\n      0x00\n        /* \"#utility.yul\":949:951   */\n      0x20\n        /* \"#utility.yul\":937:946   */\n      dup3\n        /* \"#utility.yul\":928:935   */\n      dup5\n        /* \"#utility.yul\":924:947   */\n      sub\n        /* \"#utility.yul\":920:952   */\n      slt\n        /* \"#utility.yul\":917:1036   */\n      iszero\n      tag_128\n      jumpi\n        /* \"#utility.yul\":955:1034   */\n      tag_129\n      tag_88\n      jump\t// in\n    tag_129:\n        /* \"#utility.yul\":917:1036   */\n    tag_128:\n        /* \"#utility.yul\":1075:1076   */\n      0x00\n        /* \"#utility.yul\":1100:1153   */\n      tag_130\n        /* \"#utility.yul\":1145:1152   */\n      dup5\n        /* \"#utility.yul\":1136:1142   */\n      dup3\n        /* \"#utility.yul\":1125:1134   */\n      dup6\n        /* \"#utility.yul\":1121:1143   */\n      add\n        /* \"#utility.yul\":1100:1153   */\n      tag_93\n      jump\t// in\n    tag_130:\n        /* \"#utility.yul\":1090:1153   */\n      swap2\n      pop\n        /* \"#utility.yul\":1046:1163   */\n      pop\n        /* \"#utility.yul\":841:1170   */\n      swap3\n      swap2\n      pop\n      pop\n      jump\t// out\n        /* \"#utility.yul\":1176:1253   */\n    tag_94:\n        /* \"#utility.yul\":1213:1220   */\n      0x00\n        /* \"#utility.yul\":1242:1247   */\n      dup2\n        /* \"#utility.yul\":1231:1247   */\n      swap1\n      pop\n        /* \"#utility.yul\":1176:1253   */\n      swap2\n      swap1\n      pop\n      jump\t// out\n        /* \"#utility.yul\":1259:1377   */\n    tag_95:\n        /* \"#utility.yul\":1346:1370   */\n      tag_133\n        /* \"#utility.yul\":1364:1369   */\n      dup2\n        /* \"#utility.yul\":1346:1370   */\n      tag_94\n      jump\t// in\n    tag_133:\n        /* \"#utility.yul\":1341:1344   */\n      dup3\n        /* \"#utility.yul\":1334:1371   */\n      mstore\n        /* \"#utility.yul\":1259:1377   */\n      pop\n      pop\n      jump\t// out\n        /* \"#utility.yul\":1383:1605   */\n    tag_14:\n        /* \"#utility.yul\":1476:1480   */\n      0x00\n        /* \"#utility.yul\":1514:1516   */\n      0x20\n        /* \"#utility.yul\":1503:1512   */\n      dup3\n        /* \"#utility.yul\":1499:1517   */\n      add\n        /* \"#utility.yul\":1491:1517   */\n      swap1\n      pop\n        /* \"#utility.yul\":1527:1598   */\n      tag_135\n        /* \"#utility.yul\":1595:1596   */\n      0x00\n        /* \"#utility.yul\":1584:1593   */\n      dup4\n        /* \"#utility.yul\":1580:1597   */\n      add\n        /* \"#utility.yul\":1571:1577   */\n      dup5\n        /* \"#utility.yul\":1527:1598   */\n      tag_95\n      jump\t// in\n    tag_135:\n        /* \"#utility.yul\":1383:1605   */\n      swap3\n      swap2\n      pop\n      pop\n      jump\t// out\n        /* \"#utility.yul\":1611:1729   */\n    tag_96:\n        /* \"#utility.yul\":1698:1722   */\n      tag_137\n        /* \"#utility.yul\":1716:1721   */\n      dup2\n        /* \"#utility.yul\":1698:1722   */\n      tag_91\n      jump\t// in\n    tag_137:\n        /* \"#utility.yul\":1693:1696   */\n      dup3\n        /* \"#utility.yul\":1686:1723   */\n      mstore\n        /* \"#utility.yul\":1611:1729   */\n      pop\n      pop\n      jump\t// out\n        /* \"#utility.yul\":1735:1957   */\n    tag_26:\n        /* \"#utility.yul\":1828:1832   */\n      0x00\n        /* \"#utility.yul\":1866:1868   */\n      0x20\n        /* \"#utility.yul\":1855:1864   */\n      dup3\n        /* \"#utility.yul\":1851:1869   */\n      add\n        /* \"#utility.yul\":1843:1869   */\n      swap1\n      pop\n        /* \"#utility.yul\":1879:1950   */\n      tag_139\n        /* \"#utility.yul\":1947:1948   */\n      0x00\n        /* \"#utility.yul\":1936:1945   */\n      dup4\n        /* \"#utility.yul\":1932:1949   */\n      add\n        /* \"#utility.yul\":1923:1929   */\n      dup5\n        /* \"#utility.yul\":1879:1950   */\n      tag_96\n      jump\t// in\n    tag_139:\n        /* \"#utility.yul\":1735:1957   */\n      swap3\n      swap2\n      pop\n      pop\n      jump\t// out\n        /* \"#utility.yul\":1963:2085   */\n    tag_97:\n        /* \"#utility.yul\":2036:2060   */\n      tag_141\n        /* \"#utility.yul\":2054:2059   */\n      dup2\n        /* \"#utility.yul\":2036:2060   */\n      tag_94\n      jump\t// in\n    tag_141:\n        /* \"#utility.yul\":2029:2034   */\n      dup2\n        /* \"#utility.yul\":2026:2061   */\n      eq\n        /* \"#utility.yul\":2016:2079   */\n      tag_142\n      jumpi\n        /* \"#utility.yul\":2075:2076   */\n      0x00\n        /* \"#utility.yul\":2072:2073   */\n      dup1\n        /* \"#utility.yul\":2065:2077   */\n      revert\n        /* \"#utility.yul\":2016:2079   */\n    tag_142:\n        /* \"#utility.yul\":1963:2085   */\n      pop\n      jump\t// out\n        /* \"#utility.yul\":2091:2230   */\n    tag_98:\n        /* \"#utility.yul\":2137:2142   */\n      0x00\n        /* \"#utility.yul\":2175:2181   */\n      dup2\n        /* \"#utility.yul\":2162:2182   */\n      calldataload\n        /* \"#utility.yul\":2153:2182   */\n      swap1\n      pop\n        /* \"#utility.yul\":2191:2224   */\n      tag_144\n        /* \"#utility.yul\":2218:2223   */\n      dup2\n        /* \"#utility.yul\":2191:2224   */\n      tag_97\n      jump\t// in\n    tag_144:\n        /* \"#utility.yul\":2091:2230   */\n      swap3\n      swap2\n      pop\n      pop\n      jump\t// out\n        /* \"#utility.yul\":2236:2565   */\n    tag_32:\n        /* \"#utility.yul\":2295:2301   */\n      0x00\n        /* \"#utility.yul\":2344:2346   */\n      0x20\n        /* \"#utility.yul\":2332:2341   */\n      dup3\n        /* \"#utility.yul\":2323:2330   */\n      dup5\n        /* \"#utility.yul\":2319:2342   */\n      sub\n        /* \"#utility.yul\":2315:2347   */\n      slt\n        /* \"#utility.yul\":2312:2431   */\n      iszero\n      tag_146\n      jumpi\n        /* \"#utility.yul\":2350:2429   */\n      tag_147\n      tag_88\n      jump\t// in\n    tag_147:\n        /* \"#utility.yul\":2312:2431   */\n    tag_146:\n        /* \"#utility.yul\":2470:2471   */\n      0x00\n        /* \"#utility.yul\":2495:2548   */\n      tag_148\n        /* \"#utility.yul\":2540:2547   */\n      dup5\n        /* \"#utility.yul\":2531:2537   */\n      dup3\n        /* \"#utility.yul\":2520:2529   */\n      dup6\n        /* \"#utility.yul\":2516:2538   */\n      add\n        /* \"#utility.yul\":2495:2548   */\n      tag_98\n      jump\t// in\n    tag_148:\n        /* \"#utility.yul\":2485:2548   */\n      swap2\n      pop\n        /* \"#utility.yul\":2441:2558   */\n      pop\n        /* \"#utility.yul\":2236:2565   */\n      swap3\n      swap2\n      pop\n      pop\n      jump\t// out\n        /* \"#utility.yul\":2571:2740   */\n    tag_99:\n        /* \"#utility.yul\":2655:2666   */\n      0x00\n        /* \"#utility.yul\":2689:2695   */\n      dup3\n        /* \"#utility.yul\":2684:2687   */\n      dup3\n        /* \"#utility.yul\":2677:2696   */\n      mstore\n        /* \"#utility.yul\":2729:2733   */\n      0x20\n        /* \"#utility.yul\":2724:2727   */\n      dup3\n        /* \"#utility.yul\":2720:2734   */\n      add\n        /* \"#utility.yul\":2705:2734   */\n      swap1\n      pop\n        /* \"#utility.yul\":2571:2740   */\n      swap3\n      swap2\n      pop\n      pop\n      jump\t// out\n        /* \"#utility.yul\":2746:2911   */\n    tag_100:\n        /* \"#utility.yul\":2886:2903   */\n      0x43616e6e6f742077697468647261770000000000000000000000000000000000\n        /* \"#utility.yul\":2882:2883   */\n      0x00\n        /* \"#utility.yul\":2874:2880   */\n      dup3\n        /* \"#utility.yul\":2870:2884   */\n      add\n        /* \"#utility.yul\":2863:2904   */\n      mstore\n        /* \"#utility.yul\":2746:2911   */\n      pop\n      jump\t// out\n        /* \"#utility.yul\":2917:3283   */\n    tag_101:\n        /* \"#utility.yul\":3059:3062   */\n      0x00\n        /* \"#utility.yul\":3080:3147   */\n      tag_152\n        /* \"#utility.yul\":3144:3146   */\n      0x0f\n        /* \"#utility.yul\":3139:3142   */\n      dup4\n        /* \"#utility.yul\":3080:3147   */\n      tag_99\n      jump\t// in\n    tag_152:\n        /* \"#utility.yul\":3073:3147   */\n      swap2\n      pop\n        /* \"#utility.yul\":3156:3249   */\n      tag_153\n        /* \"#utility.yul\":3245:3248   */\n      dup3\n        /* \"#utility.yul\":3156:3249   */\n      tag_100\n      jump\t// in\n    tag_153:\n        /* \"#utility.yul\":3274:3276   */\n      0x20\n        /* \"#utility.yul\":3269:3272   */\n      dup3\n        /* \"#utility.yul\":3265:3277   */\n      add\n        /* \"#utility.yul\":3258:3277   */\n      swap1\n      pop\n        /* \"#utility.yul\":2917:3283   */\n      swap2\n      swap1\n      pop\n      jump\t// out\n        /* \"#utility.yul\":3289:3708   */\n    tag_38:\n        /* \"#utility.yul\":3455:3459   */\n      0x00\n        /* \"#utility.yul\":3493:3495   */\n      0x20\n        /* \"#utility.yul\":3482:3491   */\n      dup3\n        /* \"#utility.yul\":3478:3496   */\n      add\n        /* \"#utility.yul\":3470:3496   */\n      swap1\n      pop\n        /* \"#utility.yul\":3542:3551   */\n      dup2\n        /* \"#utility.yul\":3536:3540   */\n      dup2\n        /* \"#utility.yul\":3532:3552   */\n      sub\n        /* \"#utility.yul\":3528:3529   */\n      0x00\n        /* \"#utility.yul\":3517:3526   */\n      dup4\n        /* \"#utility.yul\":3513:3530   */\n      add\n        /* \"#utility.yul\":3506:3553   */\n      mstore\n        /* \"#utility.yul\":3570:3701   */\n      tag_155\n        /* \"#utility.yul\":3696:3700   */\n      dup2\n        /* \"#utility.yul\":3570:3701   */\n      tag_101\n      jump\t// in\n    tag_155:\n        /* \"#utility.yul\":3562:3701   */\n      swap1\n      pop\n        /* \"#utility.yul\":3289:3708   */\n      swap2\n      swap1\n      pop\n      jump\t// out\n        /* \"#utility.yul\":3714:3894   */\n    tag_45:\n        /* \"#utility.yul\":3762:3839   */\n      0x4e487b7100000000000000000000000000000000000000000000000000000000\n        /* \"#utility.yul\":3759:3760   */\n      0x00\n        /* \"#utility.yul\":3752:3840   */\n      mstore\n        /* \"#utility.yul\":3859:3863   */\n      0x32\n        /* \"#utility.yul\":3856:3857   */\n      0x04\n        /* \"#utility.yul\":3849:3864   */\n      mstore\n        /* \"#utility.yul\":3883:3887   */\n      0x24\n        /* \"#utility.yul\":3880:3881   */\n      0x00\n        /* \"#utility.yul\":3873:3888   */\n      revert\n        /* \"#utility.yul\":3900:4080   */\n    tag_49:\n        /* \"#utility.yul\":3948:4025   */\n      0x4e487b7100000000000000000000000000000000000000000000000000000000\n        /* \"#utility.yul\":3945:3946   */\n      0x00\n        /* \"#utility.yul\":3938:4026   */\n      mstore\n        /* \"#utility.yul\":4045:4049   */\n      0x41\n        /* \"#utility.yul\":4042:4043   */\n      0x04\n        /* \"#utility.yul\":4035:4050   */\n      mstore\n        /* \"#utility.yul\":4069:4073   */\n      0x24\n        /* \"#utility.yul\":4066:4067   */\n      0x00\n        /* \"#utility.yul\":4059:4074   */\n      revert\n        /* \"#utility.yul\":4086:4260   */\n    tag_102:\n        /* \"#utility.yul\":4226:4252   */\n      0x436f756c64206e6f742073656e642054727920616761696e0000000000000000\n        /* \"#utility.yul\":4222:4223   */\n      0x00\n        /* \"#utility.yul\":4214:4220   */\n      dup3\n        /* \"#utility.yul\":4210:4224   */\n      add\n        /* \"#utility.yul\":4203:4253   */\n      mstore\n        /* \"#utility.yul\":4086:4260   */\n      pop\n      jump\t// out\n        /* \"#utility.yul\":4266:4632   */\n    tag_103:\n        /* \"#utility.yul\":4408:4411   */\n      0x00\n        /* \"#utility.yul\":4429:4496   */\n      tag_160\n        /* \"#utility.yul\":4493:4495   */\n      0x18\n        /* \"#utility.yul\":4488:4491   */\n      dup4\n        /* \"#utility.yul\":4429:4496   */\n      tag_99\n      jump\t// in\n    tag_160:\n        /* \"#utility.yul\":4422:4496   */\n      swap2\n      pop\n        /* \"#utility.yul\":4505:4598   */\n      tag_161\n        /* \"#utility.yul\":4594:4597   */\n      dup3\n        /* \"#utility.yul\":4505:4598   */\n      tag_102\n      jump\t// in\n    tag_161:\n        /* \"#utility.yul\":4623:4625   */\n      0x20\n        /* \"#utility.yul\":4618:4621   */\n      dup3\n        /* \"#utility.yul\":4614:4626   */\n      add\n        /* \"#utility.yul\":4607:4626   */\n      swap1\n      pop\n        /* \"#utility.yul\":4266:4632   */\n      swap2\n      swap1\n      pop\n      jump\t// out\n        /* \"#utility.yul\":4638:5057   */\n    tag_56:\n        /* \"#utility.yul\":4804:4808   */\n      0x00\n        /* \"#utility.yul\":4842:4844   */\n      0x20\n        /* \"#utility.yul\":4831:4840   */\n      dup3\n        /* \"#utility.yul\":4827:4845   */\n      add\n        /* \"#utility.yul\":4819:4845   */\n      swap1\n      pop\n        /* \"#utility.yul\":4891:4900   */\n      dup2\n        /* \"#utility.yul\":4885:4889   */\n      dup2\n        /* \"#utility.yul\":4881:4901   */\n      sub\n        /* \"#utility.yul\":4877:4878   */\n      0x00\n        /* \"#utility.yul\":4866:4875   */\n      dup4\n        /* \"#utility.yul\":4862:4879   */\n      add\n        /* \"#utility.yul\":4855:4902   */\n      mstore\n        /* \"#utility.yul\":4919:5050   */\n      tag_163\n        /* \"#utility.yul\":5045:5049   */\n      dup2\n        /* \"#utility.yul\":4919:5050   */\n      tag_103\n      jump\t// in\n    tag_163:\n        /* \"#utility.yul\":4911:5050   */\n      swap1\n      pop\n        /* \"#utility.yul\":4638:5057   */\n      swap2\n      swap1\n      pop\n      jump\t// out\n        /* \"#utility.yul\":5063:5293   */\n    tag_104:\n        /* \"#utility.yul\":5203:5237   */\n      0x5468652066756e64696e6720646f6573206e6f74206d65657420626173652072\n        /* \"#utility.yul\":5199:5200   */\n      0x00\n        /* \"#utility.yul\":5191:5197   */\n      dup3\n        /* \"#utility.yul\":5187:5201   */\n      add\n        /* \"#utility.yul\":5180:5238   */\n      mstore\n        /* \"#utility.yul\":5272:5285   */\n      0x6571756972656d656e7420000000000000000000000000000000000000000000\n        /* \"#utility.yul\":5267:5269   */\n      0x20\n        /* \"#utility.yul\":5259:5265   */\n      dup3\n        /* \"#utility.yul\":5255:5270   */\n      add\n        /* \"#utility.yul\":5248:5286   */\n      mstore\n        /* \"#utility.yul\":5063:5293   */\n      pop\n      jump\t// out\n        /* \"#utility.yul\":5299:5665   */\n    tag_105:\n        /* \"#utility.yul\":5441:5444   */\n      0x00\n        /* \"#utility.yul\":5462:5529   */\n      tag_166\n        /* \"#utility.yul\":5526:5528   */\n      0x2b\n        /* \"#utility.yul\":5521:5524   */\n      dup4\n        /* \"#utility.yul\":5462:5529   */\n      tag_99\n      jump\t// in\n    tag_166:\n        /* \"#utility.yul\":5455:5529   */\n      swap2\n      pop\n        /* \"#utility.yul\":5538:5631   */\n      tag_167\n        /* \"#utility.yul\":5627:5630   */\n      dup3\n        /* \"#utility.yul\":5538:5631   */\n      tag_104\n      jump\t// in\n    tag_167:\n        /* \"#utility.yul\":5656:5658   */\n      0x40\n        /* \"#utility.yul\":5651:5654   */\n      dup3\n        /* \"#utility.yul\":5647:5659   */\n      add\n        /* \"#utility.yul\":5640:5659   */\n      swap1\n      pop\n        /* \"#utility.yul\":5299:5665   */\n      swap2\n      swap1\n      pop\n      jump\t// out\n        /* \"#utility.yul\":5671:6090   */\n    tag_62:\n        /* \"#utility.yul\":5837:5841   */\n      0x00\n        /* \"#utility.yul\":5875:5877   */\n      0x20\n        /* \"#utility.yul\":5864:5873   */\n      dup3\n        /* \"#utility.yul\":5860:5878   */\n      add\n        /* \"#utility.yul\":5852:5878   */\n      swap1\n      pop\n        /* \"#utility.yul\":5924:5933   */\n      dup2\n        /* \"#utility.yul\":5918:5922   */\n      dup2\n        /* \"#utility.yul\":5914:5934   */\n      sub\n        /* \"#utility.yul\":5910:5911   */\n      0x00\n        /* \"#utility.yul\":5899:5908   */\n      dup4\n        /* \"#utility.yul\":5895:5912   */\n      add\n        /* \"#utility.yul\":5888:5935   */\n      mstore\n        /* \"#utility.yul\":5952:6083   */\n      tag_169\n        /* \"#utility.yul\":6078:6082   */\n      dup2\n        /* \"#utility.yul\":5952:6083   */\n      tag_105\n      jump\t// in\n    tag_169:\n        /* \"#utility.yul\":5944:6083   */\n      swap1\n      pop\n        /* \"#utility.yul\":5671:6090   */\n      swap2\n      swap1\n      pop\n      jump\t// out\n        /* \"#utility.yul\":6096:6276   */\n    tag_106:\n        /* \"#utility.yul\":6144:6221   */\n      0x4e487b7100000000000000000000000000000000000000000000000000000000\n        /* \"#utility.yul\":6141:6142   */\n      0x00\n        /* \"#utility.yul\":6134:6222   */\n      mstore\n        /* \"#utility.yul\":6241:6245   */\n      0x11\n        /* \"#utility.yul\":6238:6239   */\n      0x04\n        /* \"#utility.yul\":6231:6246   */\n      mstore\n        /* \"#utility.yul\":6265:6269   */\n      0x24\n        /* \"#utility.yul\":6262:6263   */\n      0x00\n        /* \"#utility.yul\":6255:6270   */\n      revert\n        /* \"#utility.yul\":6282:6692   */\n    tag_70:\n        /* \"#utility.yul\":6322:6329   */\n      0x00\n        /* \"#utility.yul\":6345:6365   */\n      tag_172\n        /* \"#utility.yul\":6363:6364   */\n      dup3\n        /* \"#utility.yul\":6345:6365   */\n      tag_94\n      jump\t// in\n    tag_172:\n        /* \"#utility.yul\":6340:6365   */\n      swap2\n      pop\n        /* \"#utility.yul\":6379:6399   */\n      tag_173\n        /* \"#utility.yul\":6397:6398   */\n      dup4\n        /* \"#utility.yul\":6379:6399   */\n      tag_94\n      jump\t// in\n    tag_173:\n        /* \"#utility.yul\":6374:6399   */\n      swap3\n      pop\n        /* \"#utility.yul\":6434:6435   */\n      dup3\n        /* \"#utility.yul\":6431:6432   */\n      dup3\n        /* \"#utility.yul\":6427:6436   */\n      mul\n        /* \"#utility.yul\":6456:6486   */\n      tag_174\n        /* \"#utility.yul\":6474:6485   */\n      dup2\n        /* \"#utility.yul\":6456:6486   */\n      tag_94\n      jump\t// in\n    tag_174:\n        /* \"#utility.yul\":6445:6486   */\n      swap2\n      pop\n        /* \"#utility.yul\":6635:6636   */\n      dup3\n        /* \"#utility.yul\":6626:6633   */\n      dup3\n        /* \"#utility.yul\":6622:6637   */\n      div\n        /* \"#utility.yul\":6619:6620   */\n      dup5\n        /* \"#utility.yul\":6616:6638   */\n      eq\n        /* \"#utility.yul\":6596:6597   */\n      dup4\n        /* \"#utility.yul\":6589:6598   */\n      iszero\n        /* \"#utility.yul\":6569:6652   */\n      or\n        /* \"#utility.yul\":6546:6685   */\n      tag_175\n      jumpi\n        /* \"#utility.yul\":6665:6683   */\n      tag_176\n      tag_106\n      jump\t// in\n    tag_176:\n        /* \"#utility.yul\":6546:6685   */\n    tag_175:\n        /* \"#utility.yul\":6330:6692   */\n      pop\n        /* \"#utility.yul\":6282:6692   */\n      swap3\n      swap2\n      pop\n      pop\n      jump\t// out\n        /* \"#utility.yul\":6698:6878   */\n    tag_107:\n        /* \"#utility.yul\":6746:6823   */\n      0x4e487b7100000000000000000000000000000000000000000000000000000000\n        /* \"#utility.yul\":6743:6744   */\n      0x00\n        /* \"#utility.yul\":6736:6824   */\n      mstore\n        /* \"#utility.yul\":6843:6847   */\n      0x12\n        /* \"#utility.yul\":6840:6841   */\n      0x04\n        /* \"#utility.yul\":6833:6848   */\n      mstore\n        /* \"#utility.yul\":6867:6871   */\n      0x24\n        /* \"#utility.yul\":6864:6865   */\n      0x00\n        /* \"#utility.yul\":6857:6872   */\n      revert\n        /* \"#utility.yul\":6884:7069   */\n    tag_72:\n        /* \"#utility.yul\":6924:6925   */\n      0x00\n        /* \"#utility.yul\":6941:6961   */\n      tag_179\n        /* \"#utility.yul\":6959:6960   */\n      dup3\n        /* \"#utility.yul\":6941:6961   */\n      tag_94\n      jump\t// in\n    tag_179:\n        /* \"#utility.yul\":6936:6961   */\n      swap2\n      pop\n        /* \"#utility.yul\":6975:6995   */\n      tag_180\n        /* \"#utility.yul\":6993:6994   */\n      dup4\n        /* \"#utility.yul\":6975:6995   */\n      tag_94\n      jump\t// in\n    tag_180:\n        /* \"#utility.yul\":6970:6995   */\n      swap3\n      pop\n        /* \"#utility.yul\":7014:7015   */\n      dup3\n        /* \"#utility.yul\":7004:7039   */\n      tag_181\n      jumpi\n        /* \"#utility.yul\":7019:7037   */\n      tag_182\n      tag_107\n      jump\t// in\n    tag_182:\n        /* \"#utility.yul\":7004:7039   */\n    tag_181:\n        /* \"#utility.yul\":7061:7062   */\n      dup3\n        /* \"#utility.yul\":7058:7059   */\n      dup3\n        /* \"#utility.yul\":7054:7063   */\n      div\n        /* \"#utility.yul\":7049:7063   */\n      swap1\n      pop\n        /* \"#utility.yul\":6884:7069   */\n      swap3\n      swap2\n      pop\n      pop\n      jump\t// out\n        /* \"#utility.yul\":7075:7180   */\n    tag_108:\n        /* \"#utility.yul\":7111:7118   */\n      0x00\n        /* \"#utility.yul\":7151:7173   */\n      0xffffffffffffffffffff\n        /* \"#utility.yul\":7144:7149   */\n      dup3\n        /* \"#utility.yul\":7140:7174   */\n      and\n        /* \"#utility.yul\":7129:7174   */\n      swap1\n      pop\n        /* \"#utility.yul\":7075:7180   */\n      swap2\n      swap1\n      pop\n      jump\t// out\n        /* \"#utility.yul\":7186:7306   */\n    tag_109:\n        /* \"#utility.yul\":7258:7281   */\n      tag_185\n        /* \"#utility.yul\":7275:7280   */\n      dup2\n        /* \"#utility.yul\":7258:7281   */\n      tag_108\n      jump\t// in\n    tag_185:\n        /* \"#utility.yul\":7251:7256   */\n      dup2\n        /* \"#utility.yul\":7248:7282   */\n      eq\n        /* \"#utility.yul\":7238:7300   */\n      tag_186\n      jumpi\n        /* \"#utility.yul\":7296:7297   */\n      0x00\n        /* \"#utility.yul\":7293:7294   */\n      dup1\n        /* \"#utility.yul\":7286:7298   */\n      revert\n        /* \"#utility.yul\":7238:7300   */\n    tag_186:\n        /* \"#utility.yul\":7186:7306   */\n      pop\n      jump\t// out\n        /* \"#utility.yul\":7312:7453   */\n    tag_110:\n        /* \"#utility.yul\":7368:7373   */\n      0x00\n        /* \"#utility.yul\":7399:7405   */\n      dup2\n        /* \"#utility.yul\":7393:7406   */\n      mload\n        /* \"#utility.yul\":7384:7406   */\n      swap1\n      pop\n        /* \"#utility.yul\":7415:7447   */\n      tag_188\n        /* \"#utility.yul\":7441:7446   */\n      dup2\n        /* \"#utility.yul\":7415:7447   */\n      tag_109\n      jump\t// in\n    tag_188:\n        /* \"#utility.yul\":7312:7453   */\n      swap3\n      swap2\n      pop\n      pop\n      jump\t// out\n        /* \"#utility.yul\":7459:7535   */\n    tag_111:\n        /* \"#utility.yul\":7495:7502   */\n      0x00\n        /* \"#utility.yul\":7524:7529   */\n      dup2\n        /* \"#utility.yul\":7513:7529   */\n      swap1\n      pop\n        /* \"#utility.yul\":7459:7535   */\n      swap2\n      swap1\n      pop\n      jump\t// out\n        /* \"#utility.yul\":7541:7661   */\n    tag_112:\n        /* \"#utility.yul\":7613:7636   */\n      tag_191\n        /* \"#utility.yul\":7630:7635   */\n      dup2\n        /* \"#utility.yul\":7613:7636   */\n      tag_111\n      jump\t// in\n    tag_191:\n        /* \"#utility.yul\":7606:7611   */\n      dup2\n        /* \"#utility.yul\":7603:7637   */\n      eq\n        /* \"#utility.yul\":7593:7655   */\n      tag_192\n      jumpi\n        /* \"#utility.yul\":7651:7652   */\n      0x00\n        /* \"#utility.yul\":7648:7649   */\n      dup1\n        /* \"#utility.yul\":7641:7653   */\n      revert\n        /* \"#utility.yul\":7593:7655   */\n    tag_192:\n        /* \"#utility.yul\":7541:7661   */\n      pop\n      jump\t// out\n        /* \"#utility.yul\":7667:7808   */\n    tag_113:\n        /* \"#utility.yul\":7723:7728   */\n      0x00\n        /* \"#utility.yul\":7754:7760   */\n      dup2\n        /* \"#utility.yul\":7748:7761   */\n      mload\n        /* \"#utility.yul\":7739:7761   */\n      swap1\n      pop\n        /* \"#utility.yul\":7770:7802   */\n      tag_194\n        /* \"#utility.yul\":7796:7801   */\n      dup2\n        /* \"#utility.yul\":7770:7802   */\n      tag_112\n      jump\t// in\n    tag_194:\n        /* \"#utility.yul\":7667:7808   */\n      swap3\n      swap2\n      pop\n      pop\n      jump\t// out\n        /* \"#utility.yul\":7814:7957   */\n    tag_114:\n        /* \"#utility.yul\":7871:7876   */\n      0x00\n        /* \"#utility.yul\":7902:7908   */\n      dup2\n        /* \"#utility.yul\":7896:7909   */\n      mload\n        /* \"#utility.yul\":7887:7909   */\n      swap1\n      pop\n        /* \"#utility.yul\":7918:7951   */\n      tag_196\n        /* \"#utility.yul\":7945:7950   */\n      dup2\n        /* \"#utility.yul\":7918:7951   */\n      tag_97\n      jump\t// in\n    tag_196:\n        /* \"#utility.yul\":7814:7957   */\n      swap3\n      swap2\n      pop\n      pop\n      jump\t// out\n        /* \"#utility.yul\":7963:8934   */\n    tag_77:\n        /* \"#utility.yul\":8066:8072   */\n      0x00\n        /* \"#utility.yul\":8074:8080   */\n      dup1\n        /* \"#utility.yul\":8082:8088   */\n      0x00\n        /* \"#utility.yul\":8090:8096   */\n      dup1\n        /* \"#utility.yul\":8098:8104   */\n      0x00\n        /* \"#utility.yul\":8147:8150   */\n      0xa0\n        /* \"#utility.yul\":8135:8144   */\n      dup7\n        /* \"#utility.yul\":8126:8133   */\n      dup9\n        /* \"#utility.yul\":8122:8145   */\n      sub\n        /* \"#utility.yul\":8118:8151   */\n      slt\n        /* \"#utility.yul\":8115:8235   */\n      iszero\n      tag_198\n      jumpi\n        /* \"#utility.yul\":8154:8233   */\n      tag_199\n      tag_88\n      jump\t// in\n    tag_199:\n        /* \"#utility.yul\":8115:8235   */\n    tag_198:\n        /* \"#utility.yul\":8274:8275   */\n      0x00\n        /* \"#utility.yul\":8299:8362   */\n      tag_200\n        /* \"#utility.yul\":8354:8361   */\n      dup9\n        /* \"#utility.yul\":8345:8351   */\n      dup3\n        /* \"#utility.yul\":8334:8343   */\n      dup10\n        /* \"#utility.yul\":8330:8352   */\n      add\n        /* \"#utility.yul\":8299:8362   */\n      tag_110\n      jump\t// in\n    tag_200:\n        /* \"#utility.yul\":8289:8362   */\n      swap6\n      pop\n        /* \"#utility.yul\":8245:8372   */\n      pop\n        /* \"#utility.yul\":8411:8413   */\n      0x20\n        /* \"#utility.yul\":8437:8500   */\n      tag_201\n        /* \"#utility.yul\":8492:8499   */\n      dup9\n        /* \"#utility.yul\":8483:8489   */\n      dup3\n        /* \"#utility.yul\":8472:8481   */\n      dup10\n        /* \"#utility.yul\":8468:8490   */\n      add\n        /* \"#utility.yul\":8437:8500   */\n      tag_113\n      jump\t// in\n    tag_201:\n        /* \"#utility.yul\":8427:8500   */\n      swap5\n      pop\n        /* \"#utility.yul\":8382:8510   */\n      pop\n        /* \"#utility.yul\":8549:8551   */\n      0x40\n        /* \"#utility.yul\":8575:8639   */\n      tag_202\n        /* \"#utility.yul\":8631:8638   */\n      dup9\n        /* \"#utility.yul\":8622:8628   */\n      dup3\n        /* \"#utility.yul\":8611:8620   */\n      dup10\n        /* \"#utility.yul\":8607:8629   */\n      add\n        /* \"#utility.yul\":8575:8639   */\n      tag_114\n      jump\t// in\n    tag_202:\n        /* \"#utility.yul\":8565:8639   */\n      swap4\n      pop\n        /* \"#utility.yul\":8520:8649   */\n      pop\n        /* \"#utility.yul\":8688:8690   */\n      0x60\n        /* \"#utility.yul\":8714:8778   */\n      tag_203\n        /* \"#utility.yul\":8770:8777   */\n      dup9\n        /* \"#utility.yul\":8761:8767   */\n      dup3\n        /* \"#utility.yul\":8750:8759   */\n      dup10\n        /* \"#utility.yul\":8746:8768   */\n      add\n        /* \"#utility.yul\":8714:8778   */\n      tag_114\n      jump\t// in\n    tag_203:\n        /* \"#utility.yul\":8704:8778   */\n      swap3\n      pop\n        /* \"#utility.yul\":8659:8788   */\n      pop\n        /* \"#utility.yul\":8827:8830   */\n      0x80\n        /* \"#utility.yul\":8854:8917   */\n      tag_204\n        /* \"#utility.yul\":8909:8916   */\n      dup9\n        /* \"#utility.yul\":8900:8906   */\n      dup3\n        /* \"#utility.yul\":8889:8898   */\n      dup10\n        /* \"#utility.yul\":8885:8907   */\n      add\n        /* \"#utility.yul\":8854:8917   */\n      tag_110\n      jump\t// in\n    tag_204:\n        /* \"#utility.yul\":8844:8917   */\n      swap2\n      pop\n        /* \"#utility.yul\":8798:8927   */\n      pop\n        /* \"#utility.yul\":7963:8934   */\n      swap3\n      swap6\n      pop\n      swap3\n      swap6\n      swap1\n      swap4\n      pop\n      jump\t// out\n        /* \"#utility.yul\":8940:9496   */\n    tag_79:\n        /* \"#utility.yul\":8979:8986   */\n      0x00\n        /* \"#utility.yul\":9002:9021   */\n      tag_206\n        /* \"#utility.yul\":9019:9020   */\n      dup3\n        /* \"#utility.yul\":9002:9021   */\n      tag_111\n      jump\t// in\n    tag_206:\n        /* \"#utility.yul\":8997:9021   */\n      swap2\n      pop\n        /* \"#utility.yul\":9035:9054   */\n      tag_207\n        /* \"#utility.yul\":9052:9053   */\n      dup4\n        /* \"#utility.yul\":9035:9054   */\n      tag_111\n      jump\t// in\n    tag_207:\n        /* \"#utility.yul\":9030:9054   */\n      swap3\n      pop\n        /* \"#utility.yul\":9089:9090   */\n      dup3\n        /* \"#utility.yul\":9086:9087   */\n      dup3\n        /* \"#utility.yul\":9082:9091   */\n      mul\n        /* \"#utility.yul\":9111:9140   */\n      tag_208\n        /* \"#utility.yul\":9128:9139   */\n      dup2\n        /* \"#utility.yul\":9111:9140   */\n      tag_111\n      jump\t// in\n    tag_208:\n        /* \"#utility.yul\":9100:9140   */\n      swap2\n      pop\n        /* \"#utility.yul\":9198:9264   */\n      0x8000000000000000000000000000000000000000000000000000000000000000\n        /* \"#utility.yul\":9195:9196   */\n      dup5\n        /* \"#utility.yul\":9192:9265   */\n      eq\n        /* \"#utility.yul\":9188:9189   */\n      0x00\n        /* \"#utility.yul\":9185:9186   */\n      dup5\n        /* \"#utility.yul\":9181:9190   */\n      slt\n        /* \"#utility.yul\":9177:9266   */\n      and\n        /* \"#utility.yul\":9174:9289   */\n      iszero\n      tag_209\n      jumpi\n        /* \"#utility.yul\":9269:9287   */\n      tag_210\n      tag_106\n      jump\t// in\n    tag_210:\n        /* \"#utility.yul\":9174:9289   */\n    tag_209:\n        /* \"#utility.yul\":9439:9440   */\n      dup3\n        /* \"#utility.yul\":9430:9437   */\n      dup3\n        /* \"#utility.yul\":9425:9441   */\n      sdiv\n        /* \"#utility.yul\":9422:9423   */\n      dup5\n        /* \"#utility.yul\":9419:9442   */\n      eq\n        /* \"#utility.yul\":9399:9400   */\n      dup4\n        /* \"#utility.yul\":9392:9401   */\n      iszero\n        /* \"#utility.yul\":9372:9456   */\n      or\n        /* \"#utility.yul\":9349:9489   */\n      tag_211\n      jumpi\n        /* \"#utility.yul\":9469:9487   */\n      tag_212\n      tag_106\n      jump\t// in\n    tag_212:\n        /* \"#utility.yul\":9349:9489   */\n    tag_211:\n        /* \"#utility.yul\":8987:9496   */\n      pop\n        /* \"#utility.yul\":8940:9496   */\n      swap3\n      swap2\n      pop\n      pop\n      jump\t// out\n\n    auxdata: 0xa26469706673582212208b859b184e0a89de4ff8f7b0a9e5b956e9cb11741ef32947c1ecd025b08afb6b64736f6c634300081a0033\n}\n",
				"bytecode": {
					"linkReferences": {},
					"object": "608060405268015af1d78b58c400005f55348015601a575f80fd5b503360035f6101000a81548173ffffffffffffffffffffffffffffffffffffffff021916908373ffffffffffffffffffffffffffffffffffffffff160217905550610ba2806100685f395ff3fe608060405260043610610054575f3560e01c806326115239146100585780633430a88c1461009457806357ea89b6146100be5780638da5cb5b146100d4578063b60d4288146100fe578063d28dfb2214610108575b5f80fd5b348015610063575f80fd5b5061007e6004803603810190610079919061068d565b610144565b60405161008b91906106d0565b60405180910390f35b34801561009f575f80fd5b506100a8610159565b6040516100b591906106d0565b60405180910390f35b3480156100c9575f80fd5b506100d261015e565b005b3480156100df575f80fd5b506100e8610360565b6040516100f591906106f8565b60405180910390f35b610106610385565b005b348015610113575f80fd5b5061012e6004803603810190610129919061073b565b610475565b60405161013b91906106f8565b60405180910390f35b6002602052805f5260405f205f915090505481565b5f5481565b60035f9054906101000a900473ffffffffffffffffffffffffffffffffffffffff1673ffffffffffffffffffffffffffffffffffffffff163373ffffffffffffffffffffffffffffffffffffffff16146101ed576040517f08c379a00000000000000000000000000000000000000000000000000000000081526004016101e4906107c0565b60405180910390fd5b5f5b60018054905081101561028b575f60018281548110610211576102106107de565b5b905f5260205f20015f9054906101000a900473ffffffffffffffffffffffffffffffffffffffff1690505f60025f8373ffffffffffffffffffffffffffffffffffffffff1673ffffffffffffffffffffffffffffffffffffffff1681526020019081526020015f20819055505080806001019150506101ef565b505f67ffffffffffffffff8111156102a6576102a561080b565b5b6040519080825280602002602001820160405280156102d45781602001602082028036833780820191505090505b50600190805190602001906102ea92919061058d565b503373ffffffffffffffffffffffffffffffffffffffff166108fc4790811502906040515f60405180830381858888f1935050505061035e576040517f08c379a000000000000000000000000000000000000000000000000000000000815260040161035590610882565b60405180910390fd5b565b60035f9054906101000a900473ffffffffffffffffffffffffffffffffffffffff1681565b5f54610390346104b0565b10156103d1576040517f08c379a00000000000000000000000000000000000000000000000000000000081526004016103c890610910565b60405180910390fd5b600133908060018154018082558091505060019003905f5260205f20015f9091909190916101000a81548173ffffffffffffffffffffffffffffffffffffffff021916908373ffffffffffffffffffffffffffffffffffffffff1602179055503460025f3373ffffffffffffffffffffffffffffffffffffffff1673ffffffffffffffffffffffffffffffffffffffff1681526020019081526020015f2081905550565b60018181548110610484575f80fd5b905f5260205f20015f915054906101000a900473ffffffffffffffffffffffffffffffffffffffff1681565b5f806104ba6104e8565b90505f670de0b6b3a764000082856104d2919061095b565b6104dc91906109c9565b90508092505050919050565b5f8073694aa1769357215de4fac081bf1f309adc32530690505f8173ffffffffffffffffffffffffffffffffffffffff1663feaf968c6040518163ffffffff1660e01b815260040160a060405180830381865afa15801561054b573d5f803e3d5ffd5b505050506040513d601f19601f8201168201806040525081019061056f9190610a7f565b5050509150506402540be400816105869190610af6565b9250505090565b828054828255905f5260205f20908101928215610603579160200282015b82811115610602578251825f6101000a81548173ffffffffffffffffffffffffffffffffffffffff021916908373ffffffffffffffffffffffffffffffffffffffff160217905550916020019190600101906105ab565b5b5090506106109190610614565b5090565b5b8082111561062b575f815f905550600101610615565b5090565b5f80fd5b5f73ffffffffffffffffffffffffffffffffffffffff82169050919050565b5f61065c82610633565b9050919050565b61066c81610652565b8114610676575f80fd5b50565b5f8135905061068781610663565b92915050565b5f602082840312156106a2576106a161062f565b5b5f6106af84828501610679565b91505092915050565b5f819050919050565b6106ca816106b8565b82525050565b5f6020820190506106e35f8301846106c1565b92915050565b6106f281610652565b82525050565b5f60208201905061070b5f8301846106e9565b92915050565b61071a816106b8565b8114610724575f80fd5b50565b5f8135905061073581610711565b92915050565b5f602082840312156107505761074f61062f565b5b5f61075d84828501610727565b91505092915050565b5f82825260208201905092915050565b7f43616e6e6f7420776974686472617700000000000000000000000000000000005f82015250565b5f6107aa600f83610766565b91506107b582610776565b602082019050919050565b5f6020820190508181035f8301526107d78161079e565b9050919050565b7f4e487b71000000000000000000000000000000000000000000000000000000005f52603260045260245ffd5b7f4e487b71000000000000000000000000000000000000000000000000000000005f52604160045260245ffd5b7f436f756c64206e6f742073656e642054727920616761696e00000000000000005f82015250565b5f61086c601883610766565b915061087782610838565b602082019050919050565b5f6020820190508181035f83015261089981610860565b9050919050565b7f5468652066756e64696e6720646f6573206e6f74206d656574206261736520725f8201527f6571756972656d656e7420000000000000000000000000000000000000000000602082015250565b5f6108fa602b83610766565b9150610905826108a0565b604082019050919050565b5f6020820190508181035f830152610927816108ee565b9050919050565b7f4e487b71000000000000000000000000000000000000000000000000000000005f52601160045260245ffd5b5f610965826106b8565b9150610970836106b8565b925082820261097e816106b8565b915082820484148315176109955761099461092e565b5b5092915050565b7f4e487b71000000000000000000000000000000000000000000000000000000005f52601260045260245ffd5b5f6109d3826106b8565b91506109de836106b8565b9250826109ee576109ed61099c565b5b828204905092915050565b5f69ffffffffffffffffffff82169050919050565b610a17816109f9565b8114610a21575f80fd5b50565b5f81519050610a3281610a0e565b92915050565b5f819050919050565b610a4a81610a38565b8114610a54575f80fd5b50565b5f81519050610a6581610a41565b92915050565b5f81519050610a7981610711565b92915050565b5f805f805f60a08688031215610a9857610a9761062f565b5b5f610aa588828901610a24565b9550506020610ab688828901610a57565b9450506040610ac788828901610a6b565b9350506060610ad888828901610a6b565b9250506080610ae988828901610a24565b9150509295509295909350565b5f610b0082610a38565b9150610b0b83610a38565b9250828202610b1981610a38565b91507f800000000000000000000000000000000000000000000000000000000000000084145f84121615610b5057610b4f61092e565b5b8282058414831517610b6557610b6461092e565b5b509291505056fea26469706673582212208b859b184e0a89de4ff8f7b0a9e5b956e9cb11741ef32947c1ecd025b08afb6b64736f6c634300081a0033",
					"opcodes": "PUSH1 0x80 PUSH1 0x40 MSTORE PUSH9 0x15AF1D78B58C40000 PUSH0 SSTORE CALLVALUE DUP1 ISZERO PUSH1 0x1A JUMPI PUSH0 DUP1 REVERT JUMPDEST POP CALLER PUSH1 0x3 PUSH0 PUSH2 0x100 EXP DUP2 SLOAD DUP2 PUSH20 0xFFFFFFFFFFFFFFFFFFFFFFFFFFFFFFFFFFFFFFFF MUL NOT AND SWAP1 DUP4 PUSH20 0xFFFFFFFFFFFFFFFFFFFFFFFFFFFFFFFFFFFFFFFF AND MUL OR SWAP1 SSTORE POP PUSH2 0xBA2 DUP1 PUSH2 0x68 PUSH0 CODECOPY PUSH0 RETURN INVALID PUSH1 0x80 PUSH1 0x40 MSTORE PUSH1 0x4 CALLDATASIZE LT PUSH2 0x54 JUMPI PUSH0 CALLDATALOAD PUSH1 0xE0 SHR DUP1 PUSH4 0x26115239 EQ PUSH2 0x58 JUMPI DUP1 PUSH4 0x3430A88C EQ PUSH2 0x94 JUMPI DUP1 PUSH4 0x57EA89B6 EQ PUSH2 0xBE JUMPI DUP1 PUSH4 0x8DA5CB5B EQ PUSH2 0xD4 JUMPI DUP1 PUSH4 0xB60D4288 EQ PUSH2 0xFE JUMPI DUP1 PUSH4 0xD28DFB22 EQ PUSH2 0x108 JUMPI JUMPDEST PUSH0 DUP1 REVERT JUMPDEST CALLVALUE DUP1 ISZERO PUSH2 0x63 JUMPI PUSH0 DUP1 REVERT JUMPDEST POP PUSH2 0x7E PUSH1 0x4 DUP1 CALLDATASIZE SUB DUP2 ADD SWAP1 PUSH2 0x79 SWAP2 SWAP1 PUSH2 0x68D JUMP JUMPDEST PUSH2 0x144 JUMP JUMPDEST PUSH1 0x40 MLOAD PUSH2 0x8B SWAP2 SWAP1 PUSH2 0x6D0 JUMP JUMPDEST PUSH1 0x40 MLOAD DUP1 SWAP2 SUB SWAP1 RETURN JUMPDEST CALLVALUE DUP1 ISZERO PUSH2 0x9F JUMPI PUSH0 DUP1 REVERT JUMPDEST POP PUSH2 0xA8 PUSH2 0x159 JUMP JUMPDEST PUSH1 0x40 MLOAD PUSH2 0xB5 SWAP2 SWAP1 PUSH2 0x6D0 JUMP JUMPDEST PUSH1 0x40 MLOAD DUP1 SWAP2 SUB SWAP1 RETURN JUMPDEST CALLVALUE DUP1 ISZERO PUSH2 0xC9 JUMPI PUSH0 DUP1 REVERT JUMPDEST POP PUSH2 0xD2 PUSH2 0x15E JUMP JUMPDEST STOP JUMPDEST CALLVALUE DUP1 ISZERO PUSH2 0xDF JUMPI PUSH0 DUP1 REVERT JUMPDEST POP PUSH2 0xE8 PUSH2 0x360 JUMP JUMPDEST PUSH1 0x40 MLOAD PUSH2 0xF5 SWAP2 SWAP1 PUSH2 0x6F8 JUMP JUMPDEST PUSH1 0x40 MLOAD DUP1 SWAP2 SUB SWAP1 RETURN JUMPDEST PUSH2 0x106 PUSH2 0x385 JUMP JUMPDEST STOP JUMPDEST CALLVALUE DUP1 ISZERO PUSH2 0x113 JUMPI PUSH0 DUP1 REVERT JUMPDEST POP PUSH2 0x12E PUSH1 0x4 DUP1 CALLDATASIZE SUB DUP2 ADD SWAP1 PUSH2 0x129 SWAP2 SWAP1 PUSH2 0x73B JUMP JUMPDEST PUSH2 0x475 JUMP JUMPDEST PUSH1 0x40 MLOAD PUSH2 0x13B SWAP2 SWAP1 PUSH2 0x6F8 JUMP JUMPDEST PUSH1 0x40 MLOAD DUP1 SWAP2 SUB SWAP1 RETURN JUMPDEST PUSH1 0x2 PUSH1 0x20 MSTORE DUP1 PUSH0 MSTORE PUSH1 0x40 PUSH0 KECCAK256 PUSH0 SWAP2 POP SWAP1 POP SLOAD DUP2 JUMP JUMPDEST PUSH0 SLOAD DUP2 JUMP JUMPDEST PUSH1 0x3 PUSH0 SWAP1 SLOAD SWAP1 PUSH2 0x100 EXP SWAP1 DIV PUSH20 0xFFFFFFFFFFFFFFFFFFFFFFFFFFFFFFFFFFFFFFFF AND PUSH20 0xFFFFFFFFFFFFFFFFFFFFFFFFFFFFFFFFFFFFFFFF AND CALLER PUSH20 0xFFFFFFFFFFFFFFFFFFFFFFFFFFFFFFFFFFFFFFFF AND EQ PUSH2 0x1ED JUMPI PUSH1 0x40 MLOAD PUSH32 0x8C379A000000000000000000000000000000000000000000000000000000000 DUP2 MSTORE PUSH1 0x4 ADD PUSH2 0x1E4 SWAP1 PUSH2 0x7C0 JUMP JUMPDEST PUSH1 0x40 MLOAD DUP1 SWAP2 SUB SWAP1 REVERT JUMPDEST PUSH0 JUMPDEST PUSH1 0x1 DUP1 SLOAD SWAP1 POP DUP2 LT ISZERO PUSH2 0x28B JUMPI PUSH0 PUSH1 0x1 DUP3 DUP2 SLOAD DUP2 LT PUSH2 0x211 JUMPI PUSH2 0x210 PUSH2 0x7DE JUMP JUMPDEST JUMPDEST SWAP1 PUSH0 MSTORE PUSH1 0x20 PUSH0 KECCAK256 ADD PUSH0 SWAP1 SLOAD SWAP1 PUSH2 0x100 EXP SWAP1 DIV PUSH20 0xFFFFFFFFFFFFFFFFFFFFFFFFFFFFFFFFFFFFFFFF AND SWAP1 POP PUSH0 PUSH1 0x2 PUSH0 DUP4 PUSH20 0xFFFFFFFFFFFFFFFFFFFFFFFFFFFFFFFFFFFFFFFF AND PUSH20 0xFFFFFFFFFFFFFFFFFFFFFFFFFFFFFFFFFFFFFFFF AND DUP2 MSTORE PUSH1 0x20 ADD SWAP1 DUP2 MSTORE PUSH1 0x20 ADD PUSH0 KECCAK256 DUP2 SWAP1 SSTORE POP POP DUP1 DUP1 PUSH1 0x1 ADD SWAP2 POP POP PUSH2 0x1EF JUMP JUMPDEST POP PUSH0 PUSH8 0xFFFFFFFFFFFFFFFF DUP2 GT ISZERO PUSH2 0x2A6 JUMPI PUSH2 0x2A5 PUSH2 0x80B JUMP JUMPDEST JUMPDEST PUSH1 0x40 MLOAD SWAP1 DUP1 DUP3 MSTORE DUP1 PUSH1 0x20 MUL PUSH1 0x20 ADD DUP3 ADD PUSH1 0x40 MSTORE DUP1 ISZERO PUSH2 0x2D4 JUMPI DUP2 PUSH1 0x20 ADD PUSH1 0x20 DUP3 MUL DUP1 CALLDATASIZE DUP4 CALLDATACOPY DUP1 DUP3 ADD SWAP2 POP POP SWAP1 POP JUMPDEST POP PUSH1 0x1 SWAP1 DUP1 MLOAD SWAP1 PUSH1 0x20 ADD SWAP1 PUSH2 0x2EA SWAP3 SWAP2 SWAP1 PUSH2 0x58D JUMP JUMPDEST POP CALLER PUSH20 0xFFFFFFFFFFFFFFFFFFFFFFFFFFFFFFFFFFFFFFFF AND PUSH2 0x8FC SELFBALANCE SWAP1 DUP2 ISZERO MUL SWAP1 PUSH1 0x40 MLOAD PUSH0 PUSH1 0x40 MLOAD DUP1 DUP4 SUB DUP2 DUP6 DUP9 DUP9 CALL SWAP4 POP POP POP POP PUSH2 0x35E JUMPI PUSH1 0x40 MLOAD PUSH32 0x8C379A000000000000000000000000000000000000000000000000000000000 DUP2 MSTORE PUSH1 0x4 ADD PUSH2 0x355 SWAP1 PUSH2 0x882 JUMP JUMPDEST PUSH1 0x40 MLOAD DUP1 SWAP2 SUB SWAP1 REVERT JUMPDEST JUMP JUMPDEST PUSH1 0x3 PUSH0 SWAP1 SLOAD SWAP1 PUSH2 0x100 EXP SWAP1 DIV PUSH20 0xFFFFFFFFFFFFFFFFFFFFFFFFFFFFFFFFFFFFFFFF AND DUP2 JUMP JUMPDEST PUSH0 SLOAD PUSH2 0x390 CALLVALUE PUSH2 0x4B0 JUMP JUMPDEST LT ISZERO PUSH2 0x3D1 JUMPI PUSH1 0x40 MLOAD PUSH32 0x8C379A000000000000000000000000000000000000000000000000000000000 DUP2 MSTORE PUSH1 0x4 ADD PUSH2 0x3C8 SWAP1 PUSH2 0x910 JUMP JUMPDEST PUSH1 0x40 MLOAD DUP1 SWAP2 SUB SWAP1 REVERT JUMPDEST PUSH1 0x1 CALLER SWAP1 DUP1 PUSH1 0x1 DUP2 SLOAD ADD DUP1 DUP3 SSTORE DUP1 SWAP2 POP POP PUSH1 0x1 SWAP1 SUB SWAP1 PUSH0 MSTORE PUSH1 0x20 PUSH0 KECCAK256 ADD PUSH0 SWAP1 SWAP2 SWAP1 SWAP2 SWAP1 SWAP2 PUSH2 0x100 EXP DUP2 SLOAD DUP2 PUSH20 0xFFFFFFFFFFFFFFFFFFFFFFFFFFFFFFFFFFFFFFFF MUL NOT AND SWAP1 DUP4 PUSH20 0xFFFFFFFFFFFFFFFFFFFFFFFFFFFFFFFFFFFFFFFF AND MUL OR SWAP1 SSTORE POP CALLVALUE PUSH1 0x2 PUSH0 CALLER PUSH20 0xFFFFFFFFFFFFFFFFFFFFFFFFFFFFFFFFFFFFFFFF AND PUSH20 0xFFFFFFFFFFFFFFFFFFFFFFFFFFFFFFFFFFFFFFFF AND DUP2 MSTORE PUSH1 0x20 ADD SWAP1 DUP2 MSTORE PUSH1 0x20 ADD PUSH0 KECCAK256 DUP2 SWAP1 SSTORE POP JUMP JUMPDEST PUSH1 0x1 DUP2 DUP2 SLOAD DUP2 LT PUSH2 0x484 JUMPI PUSH0 DUP1 REVERT JUMPDEST SWAP1 PUSH0 MSTORE PUSH1 0x20 PUSH0 KECCAK256 ADD PUSH0 SWAP2 POP SLOAD SWAP1 PUSH2 0x100 EXP SWAP1 DIV PUSH20 0xFFFFFFFFFFFFFFFFFFFFFFFFFFFFFFFFFFFFFFFF AND DUP2 JUMP JUMPDEST PUSH0 DUP1 PUSH2 0x4BA PUSH2 0x4E8 JUMP JUMPDEST SWAP1 POP PUSH0 PUSH8 0xDE0B6B3A7640000 DUP3 DUP6 PUSH2 0x4D2 SWAP2 SWAP1 PUSH2 0x95B JUMP JUMPDEST PUSH2 0x4DC SWAP2 SWAP1 PUSH2 0x9C9 JUMP JUMPDEST SWAP1 POP DUP1 SWAP3 POP POP POP SWAP2 SWAP1 POP JUMP JUMPDEST PUSH0 DUP1 PUSH20 0x694AA1769357215DE4FAC081BF1F309ADC325306 SWAP1 POP PUSH0 DUP2 PUSH20 0xFFFFFFFFFFFFFFFFFFFFFFFFFFFFFFFFFFFFFFFF AND PUSH4 0xFEAF968C PUSH1 0x40 MLOAD DUP2 PUSH4 0xFFFFFFFF AND PUSH1 0xE0 SHL DUP2 MSTORE PUSH1 0x4 ADD PUSH1 0xA0 PUSH1 0x40 MLOAD DUP1 DUP4 SUB DUP2 DUP7 GAS STATICCALL ISZERO DUP1 ISZERO PUSH2 0x54B JUMPI RETURNDATASIZE PUSH0 DUP1 RETURNDATACOPY RETURNDATASIZE PUSH0 REVERT JUMPDEST POP POP POP POP PUSH1 0x40 MLOAD RETURNDATASIZE PUSH1 0x1F NOT PUSH1 0x1F DUP3 ADD AND DUP3 ADD DUP1 PUSH1 0x40 MSTORE POP DUP2 ADD SWAP1 PUSH2 0x56F SWAP2 SWAP1 PUSH2 0xA7F JUMP JUMPDEST POP POP POP SWAP2 POP POP PUSH5 0x2540BE400 DUP2 PUSH2 0x586 SWAP2 SWAP1 PUSH2 0xAF6 JUMP JUMPDEST SWAP3 POP POP POP SWAP1 JUMP JUMPDEST DUP3 DUP1 SLOAD DUP3 DUP3 SSTORE SWAP1 PUSH0 MSTORE PUSH1 0x20 PUSH0 KECCAK256 SWAP1 DUP2 ADD SWAP3 DUP3 ISZERO PUSH2 0x603 JUMPI SWAP2 PUSH1 0x20 MUL DUP3 ADD JUMPDEST DUP3 DUP2 GT ISZERO PUSH2 0x602 JUMPI DUP3 MLOAD DUP3 PUSH0 PUSH2 0x100 EXP DUP2 SLOAD DUP2 PUSH20 0xFFFFFFFFFFFFFFFFFFFFFFFFFFFFFFFFFFFFFFFF MUL NOT AND SWAP1 DUP4 PUSH20 0xFFFFFFFFFFFFFFFFFFFFFFFFFFFFFFFFFFFFFFFF AND MUL OR SWAP1 SSTORE POP SWAP2 PUSH1 0x20 ADD SWAP2 SWAP1 PUSH1 0x1 ADD SWAP1 PUSH2 0x5AB JUMP JUMPDEST JUMPDEST POP SWAP1 POP PUSH2 0x610 SWAP2 SWAP1 PUSH2 0x614 JUMP JUMPDEST POP SWAP1 JUMP JUMPDEST JUMPDEST DUP1 DUP3 GT ISZERO PUSH2 0x62B JUMPI PUSH0 DUP2 PUSH0 SWAP1 SSTORE POP PUSH1 0x1 ADD PUSH2 0x615 JUMP JUMPDEST POP SWAP1 JUMP JUMPDEST PUSH0 DUP1 REVERT JUMPDEST PUSH0 PUSH20 0xFFFFFFFFFFFFFFFFFFFFFFFFFFFFFFFFFFFFFFFF DUP3 AND SWAP1 POP SWAP2 SWAP1 POP JUMP JUMPDEST PUSH0 PUSH2 0x65C DUP3 PUSH2 0x633 JUMP JUMPDEST SWAP1 POP SWAP2 SWAP1 POP JUMP JUMPDEST PUSH2 0x66C DUP2 PUSH2 0x652 JUMP JUMPDEST DUP2 EQ PUSH2 0x676 JUMPI PUSH0 DUP1 REVERT JUMPDEST POP JUMP JUMPDEST PUSH0 DUP2 CALLDATALOAD SWAP1 POP PUSH2 0x687 DUP2 PUSH2 0x663 JUMP JUMPDEST SWAP3 SWAP2 POP POP JUMP JUMPDEST PUSH0 PUSH1 0x20 DUP3 DUP5 SUB SLT ISZERO PUSH2 0x6A2 JUMPI PUSH2 0x6A1 PUSH2 0x62F JUMP JUMPDEST JUMPDEST PUSH0 PUSH2 0x6AF DUP5 DUP3 DUP6 ADD PUSH2 0x679 JUMP JUMPDEST SWAP2 POP POP SWAP3 SWAP2 POP POP JUMP JUMPDEST PUSH0 DUP2 SWAP1 POP SWAP2 SWAP1 POP JUMP JUMPDEST PUSH2 0x6CA DUP2 PUSH2 0x6B8 JUMP JUMPDEST DUP3 MSTORE POP POP JUMP JUMPDEST PUSH0 PUSH1 0x20 DUP3 ADD SWAP1 POP PUSH2 0x6E3 PUSH0 DUP4 ADD DUP5 PUSH2 0x6C1 JUMP JUMPDEST SWAP3 SWAP2 POP POP JUMP JUMPDEST PUSH2 0x6F2 DUP2 PUSH2 0x652 JUMP JUMPDEST DUP3 MSTORE POP POP JUMP JUMPDEST PUSH0 PUSH1 0x20 DUP3 ADD SWAP1 POP PUSH2 0x70B PUSH0 DUP4 ADD DUP5 PUSH2 0x6E9 JUMP JUMPDEST SWAP3 SWAP2 POP POP JUMP JUMPDEST PUSH2 0x71A DUP2 PUSH2 0x6B8 JUMP JUMPDEST DUP2 EQ PUSH2 0x724 JUMPI PUSH0 DUP1 REVERT JUMPDEST POP JUMP JUMPDEST PUSH0 DUP2 CALLDATALOAD SWAP1 POP PUSH2 0x735 DUP2 PUSH2 0x711 JUMP JUMPDEST SWAP3 SWAP2 POP POP JUMP JUMPDEST PUSH0 PUSH1 0x20 DUP3 DUP5 SUB SLT ISZERO PUSH2 0x750 JUMPI PUSH2 0x74F PUSH2 0x62F JUMP JUMPDEST JUMPDEST PUSH0 PUSH2 0x75D DUP5 DUP3 DUP6 ADD PUSH2 0x727 JUMP JUMPDEST SWAP2 POP POP SWAP3 SWAP2 POP POP JUMP JUMPDEST PUSH0 DUP3 DUP3 MSTORE PUSH1 0x20 DUP3 ADD SWAP1 POP SWAP3 SWAP2 POP POP JUMP JUMPDEST PUSH32 0x43616E6E6F742077697468647261770000000000000000000000000000000000 PUSH0 DUP3 ADD MSTORE POP JUMP JUMPDEST PUSH0 PUSH2 0x7AA PUSH1 0xF DUP4 PUSH2 0x766 JUMP JUMPDEST SWAP2 POP PUSH2 0x7B5 DUP3 PUSH2 0x776 JUMP JUMPDEST PUSH1 0x20 DUP3 ADD SWAP1 POP SWAP2 SWAP1 POP JUMP JUMPDEST PUSH0 PUSH1 0x20 DUP3 ADD SWAP1 POP DUP2 DUP2 SUB PUSH0 DUP4 ADD MSTORE PUSH2 0x7D7 DUP2 PUSH2 0x79E JUMP JUMPDEST SWAP1 POP SWAP2 SWAP1 POP JUMP JUMPDEST PUSH32 0x4E487B7100000000000000000000000000000000000000000000000000000000 PUSH0 MSTORE PUSH1 0x32 PUSH1 0x4 MSTORE PUSH1 0x24 PUSH0 REVERT JUMPDEST PUSH32 0x4E487B7100000000000000000000000000000000000000000000000000000000 PUSH0 MSTORE PUSH1 0x41 PUSH1 0x4 MSTORE PUSH1 0x24 PUSH0 REVERT JUMPDEST PUSH32 0x436F756C64206E6F742073656E642054727920616761696E0000000000000000 PUSH0 DUP3 ADD MSTORE POP JUMP JUMPDEST PUSH0 PUSH2 0x86C PUSH1 0x18 DUP4 PUSH2 0x766 JUMP JUMPDEST SWAP2 POP PUSH2 0x877 DUP3 PUSH2 0x838 JUMP JUMPDEST PUSH1 0x20 DUP3 ADD SWAP1 POP SWAP2 SWAP1 POP JUMP JUMPDEST PUSH0 PUSH1 0x20 DUP3 ADD SWAP1 POP DUP2 DUP2 SUB PUSH0 DUP4 ADD MSTORE PUSH2 0x899 DUP2 PUSH2 0x860 JUMP JUMPDEST SWAP1 POP SWAP2 SWAP1 POP JUMP JUMPDEST PUSH32 0x5468652066756E64696E6720646F6573206E6F74206D65657420626173652072 PUSH0 DUP3 ADD MSTORE PUSH32 0x6571756972656D656E7420000000000000000000000000000000000000000000 PUSH1 0x20 DUP3 ADD MSTORE POP JUMP JUMPDEST PUSH0 PUSH2 0x8FA PUSH1 0x2B DUP4 PUSH2 0x766 JUMP JUMPDEST SWAP2 POP PUSH2 0x905 DUP3 PUSH2 0x8A0 JUMP JUMPDEST PUSH1 0x40 DUP3 ADD SWAP1 POP SWAP2 SWAP1 POP JUMP JUMPDEST PUSH0 PUSH1 0x20 DUP3 ADD SWAP1 POP DUP2 DUP2 SUB PUSH0 DUP4 ADD MSTORE PUSH2 0x927 DUP2 PUSH2 0x8EE JUMP JUMPDEST SWAP1 POP SWAP2 SWAP1 POP JUMP JUMPDEST PUSH32 0x4E487B7100000000000000000000000000000000000000000000000000000000 PUSH0 MSTORE PUSH1 0x11 PUSH1 0x4 MSTORE PUSH1 0x24 PUSH0 REVERT JUMPDEST PUSH0 PUSH2 0x965 DUP3 PUSH2 0x6B8 JUMP JUMPDEST SWAP2 POP PUSH2 0x970 DUP4 PUSH2 0x6B8 JUMP JUMPDEST SWAP3 POP DUP3 DUP3 MUL PUSH2 0x97E DUP2 PUSH2 0x6B8 JUMP JUMPDEST SWAP2 POP DUP3 DUP3 DIV DUP5 EQ DUP4 ISZERO OR PUSH2 0x995 JUMPI PUSH2 0x994 PUSH2 0x92E JUMP JUMPDEST JUMPDEST POP SWAP3 SWAP2 POP POP JUMP JUMPDEST PUSH32 0x4E487B7100000000000000000000000000000000000000000000000000000000 PUSH0 MSTORE PUSH1 0x12 PUSH1 0x4 MSTORE PUSH1 0x24 PUSH0 REVERT JUMPDEST PUSH0 PUSH2 0x9D3 DUP3 PUSH2 0x6B8 JUMP JUMPDEST SWAP2 POP PUSH2 0x9DE DUP4 PUSH2 0x6B8 JUMP JUMPDEST SWAP3 POP DUP3 PUSH2 0x9EE JUMPI PUSH2 0x9ED PUSH2 0x99C JUMP JUMPDEST JUMPDEST DUP3 DUP3 DIV SWAP1 POP SWAP3 SWAP2 POP POP JUMP JUMPDEST PUSH0 PUSH10 0xFFFFFFFFFFFFFFFFFFFF DUP3 AND SWAP1 POP SWAP2 SWAP1 POP JUMP JUMPDEST PUSH2 0xA17 DUP2 PUSH2 0x9F9 JUMP JUMPDEST DUP2 EQ PUSH2 0xA21 JUMPI PUSH0 DUP1 REVERT JUMPDEST POP JUMP JUMPDEST PUSH0 DUP2 MLOAD SWAP1 POP PUSH2 0xA32 DUP2 PUSH2 0xA0E JUMP JUMPDEST SWAP3 SWAP2 POP POP JUMP JUMPDEST PUSH0 DUP2 SWAP1 POP SWAP2 SWAP1 POP JUMP JUMPDEST PUSH2 0xA4A DUP2 PUSH2 0xA38 JUMP JUMPDEST DUP2 EQ PUSH2 0xA54 JUMPI PUSH0 DUP1 REVERT JUMPDEST POP JUMP JUMPDEST PUSH0 DUP2 MLOAD SWAP1 POP PUSH2 0xA65 DUP2 PUSH2 0xA41 JUMP JUMPDEST SWAP3 SWAP2 POP POP JUMP JUMPDEST PUSH0 DUP2 MLOAD SWAP1 POP PUSH2 0xA79 DUP2 PUSH2 0x711 JUMP JUMPDEST SWAP3 SWAP2 POP POP JUMP JUMPDEST PUSH0 DUP1 PUSH0 DUP1 PUSH0 PUSH1 0xA0 DUP7 DUP9 SUB SLT ISZERO PUSH2 0xA98 JUMPI PUSH2 0xA97 PUSH2 0x62F JUMP JUMPDEST JUMPDEST PUSH0 PUSH2 0xAA5 DUP9 DUP3 DUP10 ADD PUSH2 0xA24 JUMP JUMPDEST SWAP6 POP POP PUSH1 0x20 PUSH2 0xAB6 DUP9 DUP3 DUP10 ADD PUSH2 0xA57 JUMP JUMPDEST SWAP5 POP POP PUSH1 0x40 PUSH2 0xAC7 DUP9 DUP3 DUP10 ADD PUSH2 0xA6B JUMP JUMPDEST SWAP4 POP POP PUSH1 0x60 PUSH2 0xAD8 DUP9 DUP3 DUP10 ADD PUSH2 0xA6B JUMP JUMPDEST SWAP3 POP POP PUSH1 0x80 PUSH2 0xAE9 DUP9 DUP3 DUP10 ADD PUSH2 0xA24 JUMP JUMPDEST SWAP2 POP POP SWAP3 SWAP6 POP SWAP3 SWAP6 SWAP1 SWAP4 POP JUMP JUMPDEST PUSH0 PUSH2 0xB00 DUP3 PUSH2 0xA38 JUMP JUMPDEST SWAP2 POP PUSH2 0xB0B DUP4 PUSH2 0xA38 JUMP JUMPDEST SWAP3 POP DUP3 DUP3 MUL PUSH2 0xB19 DUP2 PUSH2 0xA38 JUMP JUMPDEST SWAP2 POP PUSH32 0x8000000000000000000000000000000000000000000000000000000000000000 DUP5 EQ PUSH0 DUP5 SLT AND ISZERO PUSH2 0xB50 JUMPI PUSH2 0xB4F PUSH2 0x92E JUMP JUMPDEST JUMPDEST DUP3 DUP3 SDIV DUP5 EQ DUP4 ISZERO OR PUSH2 0xB65 JUMPI PUSH2 0xB64 PUSH2 0x92E JUMP JUMPDEST JUMPDEST POP SWAP3 SWAP2 POP POP JUMP INVALID LOG2 PUSH5 0x6970667358 0x22 SLT KECCAK256 DUP12 DUP6 SWAP12 XOR 0x4E EXP DUP10 0xDE 0x4F 0xF8 0xF7 0xB0 0xA9 0xE5 0xB9 JUMP 0xE9 0xCB GT PUSH21 0x1EF32947C1ECD025B08AFB6B64736F6C634300081A STOP CALLER "
				},
				"gasEstimates": {
					"creation": {
						"codeDepositCost": "595600",
						"executionCost": "47000",
						"totalCost": "642600"
					},
					"external": {
						"Withdraw()": "infinite",
						"fund()": "infinite",
						"fundingGivenByAddress(address)": "2780",
						"minimumUSD()": "2424",
						"owner()": "2552",
						"patrons(uint256)": "5032"
					}
				},
				"methodIdentifiers": {
					"Withdraw()": "57ea89b6",
					"fund()": "b60d4288",
					"fundingGivenByAddress(address)": "26115239",
					"minimumUSD()": "3430a88c",
					"owner()": "8da5cb5b",
					"patrons(uint256)": "d28dfb22"
				}
			},
			"storageLayout": {
				"storage": [
					{
						"astId": 58,
						"contract": "contracts/FundMe/FundMe.sol:FundMe",
						"label": "minimumUSD",
						"offset": 0,
						"slot": "0",
						"type": "t_uint256"
					},
					{
						"astId": 61,
						"contract": "contracts/FundMe/FundMe.sol:FundMe",
						"label": "patrons",
						"offset": 0,
						"slot": "1",
						"type": "t_array(t_address)dyn_storage"
					},
					{
						"astId": 65,
						"contract": "contracts/FundMe/FundMe.sol:FundMe",
						"label": "fundingGivenByAddress",
						"offset": 0,
						"slot": "2",
						"type": "t_mapping(t_address,t_uint256)"
					},
					{
						"astId": 67,
						"contract": "contracts/FundMe/FundMe.sol:FundMe",
						"label": "owner",
						"offset": 0,
						"slot": "3",
						"type": "t_address"
					}
				],
				"types": {
					"t_address": {
						"encoding": "inplace",
						"label": "address",
						"numberOfBytes": "20"
					},
					"t_array(t_address)dyn_storage": {
						"base": "t_address",
						"encoding": "dynamic_array",
						"label": "address[]",
						"numberOfBytes": "32"
					},
					"t_mapping(t_address,t_uint256)": {
						"encoding": "mapping",
						"key": "t_address",
						"label": "mapping(address => uint256)",
						"numberOfBytes": "32",
						"value": "t_uint256"
					},
					"t_uint256": {
						"encoding": "inplace",
						"label": "uint256",
						"numberOfBytes": "32"
					}
				}
			},
			"userdoc": {
				"kind": "user",
				"methods": {},
				"version": 1
			}
		}
	}
}